:04000000BDEF1FF041
:1000080000C018F001C017F00CC016F00DC015F0B4
:10001800E9CF1DF0EACF1EF0F5CF1CF0F8CF19F0AC
:10002800F7CF1AF0F6CF1BF0F2A22CD0F2923D4A8D
:100038003E2A690E0001AF6F000EB06FAA0EB16FB5
:10004800410EB26F000EB36F3DC0B4F03EC0B5F0C4
:1000580098EC1FF0780EAF6F000EB06FB90EB16F4D
:10006800410EB26F000EB36F010E3D24B46F000E47
:100078003E20B56F98EC1FF0690EAF6F000EB06FA1
:100088007DEC1FF0F2B201D0FDD70001F292274AB1
:10009800282A4E0EAF6F000EB06FB00EB16F410E32
:1000A800B26F000EB36F010E2724B46F000E282024
:1000B800B56F98EC1FF0870EAF6F000EB06FB60EDD
:1000C800B16F410EB26F000EB36F010E2724B46FEB
:1000D800000E2820B56F98EC1FF04E0EAF6F000E83
:1000E800B06F7DEC1FF09EAA43D09E9A74EC1FF06F
:1000F80000C04DF000501F180DE1266A4DC05EF09B
:100108005F0EE16E000EE26E2650E126D8B0E22ABC
:100118004DC0E6FF4D5025180CE14DC05DF05F0E57
:10012800E16E000EE26E2650E126D8B0E22A4DC0FC
:10013800E6FF5E501F1809E15D50251806E1010E23
:10014800246E266A5E6A5D6A0FD05F0EE16E000E4D
:10015800E26E2650E126D8B0E22A4DC0E6FF262AF4
:1001680026500A08D8A0266A246A266A63EC1FF07B
:100178001CC0F5FF19C0F8FF1AC0F7FF1BC0F6FF37
:1001880018C000F017C001F016C00CF015C00DF033
:0A0198001DC0E9FF1EC0EAFF1100C0
:0E01A200026A016A006A086A036A000E12000F
:1001B0000B840BAEE3EF00F0010E036E026A016ADE
:0A01C000006A0A360232FF0E120038
:0801CA000AAE029E000E1200B5
:1001D2000B820BAEF3EF00F003680268016800685F
:0801E2000A360232FF0E120082
:1001EA000CB037EF01F00CA2DDEF01F00E6A000E41
:1001FA0002644EEF01F0F00E0214D8A419EF01F0D8
:10020A00023A01380F0B02260138F00B016E003852
:10021A000F0B01260038F00B006E08380F0B002672
:10022A000838F00B086E0E84D89002BE32EF01F047
:10023A0008360036013602360E2A02BE32EF01F0C7
:10024A0008360036013602360E2A02BE32EF01F0B7
:10025A0008360036013602360E2A0E500364D3EFF2
:10026A0001F0035E0BBC08AED8EF01F0D880800E17
:10027A0008640030000E002201220222D8A0D8EF22
:10028A0001F0023201320032034ADDEF01F0D8EF09
:10029A0001F001C002F000C001F008C000F0086AD5
:1002AA00000E0E86026485EF01F0F00E0214D8A447
:1002BA006DEF01F0023A01380F0B02260138F00BFC
:1002CA00016E00380F0B01260038F00B006E0E8409
:1002DA00D89002BE32EF01F00036013602360E2AFD
:1002EA0002BE32EF01F00036013602360E2A02BE95
:1002FA0032EF01F00036013602360E2A32EF01F0F3
:10030A0001C002F000C001F0006A000E0E960E88CD
:10031A000264B2EF01F0F00E0214D8A49DEF01F0CE
:10032A00023A01380F0B02260138F00B016E0E84D7
:10033A00D89002BE32EF01F0013602360E2A02BE12
:10034A0032EF01F0013602360E2A02BE32EF01F018
:10035A00013602360E2A32EF01F001C002F0016ABC
:10036A00000E0E860264E2EF01F0F00E0214D8A429
:10037A00C1EF01F0023A0E84D89002BE32EF01F0CA
:10038A0002360E2A02BE32EF01F002360E2A02BEF1
:10039A0032EF01F002360E2A32EF01F0010E0C6E36
:1003AA0002DFE5EF01F0020E0C6E0ADFE5EF01F065
:1003BA00040E0C6E09DFE5EF01F0080E0C6EECDEA0
:0203CA0012001F
:1003CC00086A096A000E076203646BEF02F00250C0
:1003DC0006180A6E075003267E0ED8A0FCEF01F01B
:1003EC00035ED8B06FEF02F000EF02F0035ED8A00E
:1003FC0073EF02F0028E068E02C00EF001C00BF0FD
:10040C0000C00DF000500402F4CF0CF001500502B6
:10041C00F4CF00F0F3CF08F00402F3500C26F450A4
:10042C000822000E00220D500502F3500C26F45049
:10043C000822000E002202500402F3500826F45049
:10044C00002202500502016A000E0122F350002620
:10045C00F45001220D500602F3500826F4500022ED
:10046C00026A000E012202220B500602F3500026F3
:10047C00F4500122000E02220E500602F350012607
:10048C00F450022202BE53EF02F008360036013659
:10049C0002360306D8B473EF02F066EF02F0D88090
:1004AC00800E08640030000E002201220222D8A027
:1004BC0066EF02F0023201320032034A6FEF02F0B3
:1004CC000AAE029E000E75EF02F0010E64DE75EFAF
:1004DC0002F0020E78DE75EF02F0040E63DE1200FD
:1004EC00086A080E0C6E003408360450085ED8B04A
:0E04FC0002D00826D89000360C2EF5D712003C
:10050A00025006180E6E086A096A0B6A03500764DD
:10051A0078EF03F006500A6E068E028E03500B6EB9
:10052A000750036E000E0B64C8EF02F00B50075E13
:10053A00D8B469EF03F0070E076437EF03F0075EDC
:10054A0000C008F001C000F002C001F0026A074EC4
:10055A0069EF03F007640CEF03F0075E00C008F0D0
:10056A0001C000F0016A074E69EF03F00764EAEF81
:10057A0002F0075E00C008F0006A074E69EF03F058
:10058A000764D1EF02F00AC002F005C001F004C00E
:10059A0000F0086A92EF04F0030E0764DCEF02F041
:1005AA00075E08380F0B086E074E69EF03F0D89004
:1005BA000832074E69EF03F0D8900832074E69EF08
:1005CA0003F0D890083269EF03F0030E0764FBEFDB
:1005DA0002F0075E08380F0B086E0038F00B082689
:1005EA0000380F0B006E074E69EF03F0D890003207
:1005FA000832074E69EF03F0D89000320832074EEE
:10060A0069EF03F0D8900032083269EF03F0030E65
:10061A00076423EF03F0075E08380F0B086E0038F3
:10062A00F00B082600380F0B006E0138F00B00267D
:10063A0001380F0B016E074E69EF03F0D8900132B3
:10064A0000320832074E69EF03F0D89001320032C7
:10065A000832074E69EF03F0D890013200320832AF
:10066A0069EF03F0030E076454EF03F0075E0838DE
:10067A000F0B086E0038F00B082600380F0B006EBF
:10068A000138F00B002601380F0B016E0238F00B0F
:10069A00012602380F0B026E074E69EF03F0D8905D
:1006AA000232013200320832074E69EF03F0D89065
:1006BA000232013200320832074E69EF03F0D89055
:1006CA000232013200320832096A000E0EAE5DEFC4
:1006DA0004F0081E001E011E021E082A0022012222
:1006EA0002225DEF04F00750D8A47EEF03F092EFE8
:1006FA0004F0096A02C00AF0028E068E0750035CF3
:10070A00076ED8B450EF04F0070E07641EEF04F02A
:10071A00075E0450096E0550046E0650056E066A9F
:10072A00074E50EF04F0070E0764F3EF03F0075E7D
:10073A000450096E0550046E056A074E50EF04F026
:10074A00070E0764D1EF03F0075E0450096E046ACE
:10075A00074E50EF04F0070E0764B8EF03F00AC023
:10076A0002F092EF04F0030E0764C3EF03F0075E92
:10077A0009380F0B096E074E50EF04F0D890093272
:10078A00074E50EF04F0D8900932074E50EF04F0AC
:10079A00D890093250EF04F0030E0764E2EF03F039
:1007AA00075E09380F0B096E0438F00B0926043866
:1007BA000F0B046E074E50EF04F0D8900432093242
:1007CA00074E50EF04F0D89004320932074E50EF2A
:1007DA0004F0D8900432093250EF04F0030E076493
:1007EA000AEF04F0075E09380F0B096E0438F00BA4
:1007FA00092604380F0B046E0538F00B0426053859
:10080A000F0B056E074E50EF04F0D89005320432F4
:10081A000932074E50EF04F0D890053204320932FB
:10082A00074E50EF04F0D89005320432093250EFE7
:10083A0004F0030E07643BEF04F0075E09380F0B60
:10084A00096E0438F00B092604380F0B046E0538BC
:10085A00F00B042605380F0B056E0638F00B05263B
:10086A0006380F0B066E074E50EF04F0D89006328A
:10087A00053204320932074E50EF04F0D89006329E
:10088A00053204320932074E50EF04F0D89006328E
:10089A00053204320932086A000E0EAE5DEF04F02A
:1008AA00091E041E051E061E092A04220522062206
:1008BA00095008260450002205500122065002223F
:1008CA000EBE74EF04F0D8A083EF04F002320132B6
:1008DA0000320832033E83EF04F08DEF04F0D8B003
:1008EA0088EF04F0000E081E001E011E021E082AD0
:1008FA000022012202220A7E88EF04F0010E0C6E09
:10090A006FDC94EF04F0020E0C6E6ADC94EF04F0D4
:10091A00040E0C6E59DC94EF04F0000E0C6E1200FB
:10092A000134083609360450085E0550D8A0053C43
:10093A00095E003601360F0E0C6E01340836093690
:10094A00045000A006D0085E0550D8A0053C095EF8
:10095A0005D008260550D8B0053C092600360136D0
:10096A000C2EEBD700B006D0045008260550D8B09C
:08097A00053C092600001200F3
:100982000D6A086A0050D8B4000C04180A6E0ABE38
:100992000D1E0B6A04AE02D0041E042A00AE02D061
:1009A200001E002A005004100A6E0ABE1FD0045016
:1009B200085E003600340836045008260036060E5B
:1009C2000C6E00340836045000B0085E00A0082601
:1009D20000360C2EF6D700A008260BB015D00DAEAF
:1009E200000C001E002A081E082A000C04AE09D0C2
:1009F20000BE04D00050086E006AF1D7006A002AD7
:100A0200000C001E0B2AD3D7082A0450085CD8A475
:0E0A1200E6D7086A002A00AEE2D7FF0C1200F9
:080A20000B6A0B86FF0E1200A9
:100A28000B800BAE20EF05F0026A0AAEFF0E026ED5
:0C0A3800016E006E0A360232FF0E120042
:100A4400240E0C6EB50E0D6E0D2EFED70C2EFCD79B
:060A54000000000012008A
:0A0A5A00530E0D6E0D2EFED7120094
:0C0A640000000000000000000000120074
:100A70000B6A0C6A086A0350D8B4BCEF05F002C0D8
:100A80000AF0028E9E0E035E03AEACEF05F0036C1F
:100A9000080E035CD8A079EF05F0036E083600C09D
:100AA00008F001C000F002C001F0026A080E035C09
:100AB000D8A079EF05F0036E083600C008F001C039
:100AC00000F0016A080E035CD8A079EF05F0036E10
:100AD000083600C008F0006A080E035CD8A079EF61
:100AE00005F0036E0836086A0350D8A4D89085EF45
:100AF00005F00350D8B485EF05F0D89002320132EA
:100B000000320832032E7DEF05F00BBC08A096EFF3
:100B100005F0D8A096EF05F0082AD8B4002AD8B47A
:100B2000012AD8B4022A02BEC0EF05F00AAEBCEF1B
:100B300005F0021E011E001E081E082AD8B4002A55
:100B4000D8B4012AD8B4022ABCEF05F0026A016ABF
:100B5000006A086ABCEF05F00B800BAEC6EF05F02B
:100B6000026A0AAEC6EF05F0026E016E006E086EF4
:100B70000A360232C6EF05F00C6A000EC7EF05F028
:100B8000010E0C6E000E50DFC7EF05F0FF0E025095
:100B9000036E0150026E0050016E0850006E12008C
:100BA0006E0E0001E25DD8A0C6D0640E046EE2C0F5
:100BB00000F09CDC120E0024056E066A000E062270
:100BC00005C000F006C001F0000E06BEFF0E026E6A
:100BD000036E003600900136023603360036009070
:100BE0000136023603367A0E0024F66E400E0120DE
:100BF000F76E000E0220F86E0900F5CF00F0090034
:100C0000F5CF01F00900F5CF02F00900F5CF03F0B0
:100C1000000E046E000E056E000E066E7E0E076E50
:100C2000E6EC01F000C0E3F001C0E4F002C0E5F042
:100C300003C0E6F0640E046EE2C000F057DC08C0AA
:100C400000F00A0E046E52DC090E0024056E066ADE
:100C5000000E062205C000F006C001F0000E06BE20
:100C6000FF0E026E036E0036009001360236033628
:100C7000003600900136023603367A0E0024F66EF6
:100C8000400E0120F76E000E0220F86E0900F5CF2D
:100C900000F00900F5CF01F00900F5CF02F00900DE
:100CA000F5CF03F0E3C004F0E4C005F0E5C006F0C2
:100CB000E6C007F0E6EC01F000C0E3F001C0E4F0AC
:100CC00002C0E5F003C0E6F00A0E046EE2C000F0D8
:100CD0000DDC08C000F000C001F0000E026E036ED3
:100CE000046E013601900236033604360136019057
:100CF0000236033604367A0E0124F66E400E0220C8
:100D0000F76E000E0320F86E0900F5CF00F0090021
:100D1000F5CF01F00900F5CF02F00900F5CF03F09F
:100D2000E3C004F0E4C005F0E5C006F0E6C007F05B
:100D3000E6EC01F0B1D0E2510A08D8B07ED00A0E3C
:100D4000046EE2C000F076EC02F0090E0024056E9D
:100D5000066A000E062205C000F006C001F0000E73
:100D600006BEFF0E026E036E00360090013602369C
:100D70000336003600900136023603367A0E002420
:100D8000F66E400E0120F76E000E0220F86E09008C
:100D9000F5CF00F00900F5CF01F00900F5CF02F022
:100DA0000900F5CF03F0000E046E000E056E000E74
:100DB000066E7E0E076EE6EC01F000C0E3F001C0A7
:100DC000E4F002C0E5F003C0E6F00A0E046EE2C0F3
:100DD00000F076EC02F008C000F000C001F0000E58
:100DE000026E036E046E013601900236033604363D
:100DF000013601900236033604367A0E0124F66E6F
:100E0000400E0220F76E000E0320F86E0900F5CFA9
:100E100000F00900F5CF01F00900F5CF02F009005C
:100E2000F5CF03F0E3C004F0E4C005F0E5C006F040
:100E3000E6C007F0E6EC01F02FD0E2C000F0000EB3
:100E4000016E026E036E00360090013602360336E4
:100E5000003600900136023603367A0E0024F66E14
:100E6000400E0120F76E000E0220F86E0900F5CF4B
:100E700000F00900F5CF01F00900F5CF02F00900FC
:100E8000F5CF03F0000E046E000E056E000E066E28
:0A0E90007E0E076EE6EC01F0120082
:100E9A0003500718D8A461EF07F002500618D8A427
:100EAA0061EF07F001500518D8A461EF07F0005070
:0E0EBA000418D8B4D8841200D8941200120084
:100EC8000B6A0C6A0A6A086A0350D8B4ECEF07F098
:100ED800028E9E0E035E03BE77EF07F0D8B477EF5D
:100EE80007F0DCEF07F0036C080E035CD8A0A9EF4D
:100EF80007F0036E083600C008F001C000F002C019
:100F080001F0026A080E035CD8A0A9EF07F0036E8F
:100F1800083600C008F001C000F0016A080E035C42
:100F2800D8A0A9EF07F0036E083600C008F0006AE1
:100F3800080E035CD8A0A9EF07F0036E0836086A0C
:100F48000350D8A4D890B5EF07F00350D8B4B5EF44
:100F580007F0D8900232013200320832032EADEF8A
:100F680007F00BBC08A0C6EF07F0D8A0C6EF07F043
:100F7800082AD8B4002AD8B4012AD8B4022A02BE52
:100F8800F0EF07F00AAEECEF07F0021E011E001E9C
:100F9800081E082AD8B4002AD8B4012AD8B4022ACC
:100FA800ECEF07F0026A016A006A086AECEF07F0E2
:100FB8000B800BAEF5EF07F0026A0AAEF5EF07F00B
:100FC800026E016E006E086E0A360232F5EF07F007
:100FD800000E0C6AF6EF07F0010E0C6E21DDF6EF3D
:100FE80007F0FF0E0250036E0150026E0050016EB2
:060FF8000850006E12001B
:100FFE000B6A0A6A096A086A0E6A033408360450D4
:10100E00085E0550D8A0053C095E0650D8A0063CE7
:10101E000A5E0750D8A0073C0B5EE86AD8A0010E06
:10102E000E5E0336070E0C6E0334083609360A368A
:10103E000B360E36045003A012D0085E0550D8A011
:10104E00053C095E0650D8A0063C0A5E0750D8A0A3
:10105E00073C0B5EE86AD8A0010E0E5E11D0082682
:10106E000550D8B0053C09260650D8B0063C0A26D5
:10107E000750D8B0073C0B26E86AD8B0010E0E26F2
:10108E0003360C2ED1D70234083609360A360B3603
:10109E000E36045003A012D0085E0550D8A0053CB1
:1010AE00095E0650D8A0063C0A5E0750D8A0073C41
:1010BE000B5EE86AD8A0010E0E5E11D00826055010
:1010CE00D8B0053C09260650D8B0063C0A26075073
:1010DE00D8B0073C0B26E86AD8B0010E0E260236B1
:1010EE00070E0C6E0234083609360A360B360E36EB
:1010FE00045002A012D0085E0550D8A0053C095E2F
:10110E000650D8A0063C0A5E0750D8A0073C0B5EDE
:10111E00E86AD8A0010E0E5E11D008260550D8B090
:10112E00053C09260650D8B0063C0A260750D8B012
:10113E00073C0B26E86AD8B0010E0E2602360C2E9E
:10114E00D1D70134083609360A360B360E3604501E
:10115E0002A012D0085E0550D8A0053C095E0650CC
:10116E00D8A0063C0A5E0750D8A0073C0B5EE86A82
:10117E00D8A0010E0E5E11D008260550D8B0053C41
:10118E0009260650D8B0063C0A260750D8B0073CB0
:10119E000B26E86AD8B0010E0E260136070E0C6E2D
:1011AE000134083609360A360B360E36045001A0C5
:1011BE0012D0085E0550D8A0053C095E0650D8A096
:1011CE00063C0A5E0750D8A0073C0B5EE86AD8A022
:1011DE00010E0E5E11D008260550D8B0053C09262A
:1011EE000650D8B0063C0A260750D8B0073C0B264E
:1011FE00E86AD8B0010E0E2601360C2ED1D7003477
:10120E00083609360A360B360E36045001A012D0B7
:10121E00085E0550D8A0053C095E0650D8A0063CD5
:10122E000A5E0750D8A0073C0B5EE86AD8A0010EF4
:10123E000E5E11D008260550D8B0053C0926065082
:10124E00D8B0063C0A260750D8B0073C0B26E86AF1
:10125E00D8B0010E0E260036070E0C6E003408367E
:10126E0009360A360B360E36045000A012D0085E30
:10127E000550D8A0053C095E0650D8A0063C0A5E73
:10128E000750D8A0073C0B5EE86AD8A0010E0E5E90
:10129E0011D008260550D8B0053C09260650D8B006
:1012AE00063C0A260750D8B0073C0B26E86AD8B091
:1012BE00010E0E2600360C2ED1D700B00ED00450E3
:1012CE0008260550D8B0053C09260650D8B0063C75
:0C12DE000A260750D8B0073C0B2612006F
:1012EA000050086E0150006E0250016E0350026EEB
:1012FA00036A0B6A0C6A9E0E036E0A6A020E0C6E71
:06130A00F5EC00F01200FA
:08131000067E85EC02F01200DC
:101318000B6A0A6A096A00500402F4CF09F0F3CF95
:1013280008F001500502F4CF0BF0F3CF0AF000509B
:101338000502F3500926F4500A22E86A0B220150EC
:101348000402F3500926F4500A22E86A0B2208C066
:1013580000F009C001F00AC002F00BC003F012004F
:101368000450000A08E10550000A05E1FF0E006E6E
:101378007F0E016E58D00D6A096A086A0150001084
:10138800D8B4000C015005180A6E0ABE0D1E0B6A6F
:1013980005AE05D0041E051E042AD8B4052A01AEE0
:1013A80005D0001E011E002AD8B4012A01500510DC
:1013B8000A6E0ABE10D095EC04F00BB020D00DAE2A
:1013C800000C001E011E002AD8B4012A081E091E9E
:1013D800082AD8B4092A000C05AE0DD001BE07D0E2
:1013E8000150096E0050086E016A006AE8D7016A68
:1013F800006A002A000C011E001E0B2ADDD7082AED
:10140800D8B4092A0450085CD8A4D9D70550095C77
:10141800D8A4D5D7096A086A002AD8B4012A01AE27
:08142800CED70000FF0C1200FA
:101430000001AEBF02D08C9E01D08C8EAEBD02D01A
:101440008C9A01D08C8AAEBB02D08C9801D08C884B
:10145000AEB902D08C9601D08C86A2B102D08C821B
:1014600001D08C928C8432EC05F08C94AEB702D013
:101470008C9E01D08C8EAEB502D08C9A01D08C8A15
:10148000AEB302D08C9801D08C88AEB102D08C96CD
:1014900001D08C86A2B102D08C8201D08C928C8437
:1014A00032EC05F08C94A2A103D022EC05F002D01E
:0614B0002DEC05F0120016
:1014B6000A6A0350D8A40A800750D8A40A820A50A0
:1014C600D8B4BEEF0AF0030AD8B477EF0AF00AB030
:1014D60072EF0AF006AEBCEF0AF0BAEF0AF002AEFF
:1014E600BAEF0AF0BCEF0AF00250800B0A6E029EB9
:1014F6000650800B069E0A18D8B488EF0AF00A50E8
:10150600D8B4BAEF0AF0BCEF0AF00750035CD8B4BF
:1015160092EF0AF0D8A0AEEF0AF0B4EF0AF0065048
:10152600025CD8B49CEF0AF0D8A0AEEF0AF0B4EF94
:101536000AF00550015CD8B4A6EF0AF0D8A0AEEFC9
:101546000AF0B4EF0AF00450005CD8B4BEEF0AF01B
:10155600D8B0B4EF0AF00A52D8B4BCEF0AF0BAEF2A
:101566000AF00A52D8B4BAEF0AF0BCEF0AF0D880F3
:0E1576001200D8901200D880D8841200120003
:10158400800E0001E219006E800E000A005CD8B0E3
:101594006DD1E2510008016E01C0E2F0800E011825
:1015A400006E800E6E0A005CD8A0C0D0640E046E7B
:1015B400E2C000F0C1EC04F0120E0024056E000E2F
:1015C40000BEFF0E066E000E062205C000F006C027
:1015D40001F0000E06BEFF0E026E036E0036009090
:1015E40001360236033600360090013602360336E1
:1015F4007A0E0024F66E400E0120F76E000E0220D3
:10160400F86E0900F5CFE3F00900F5CFE4F0090026
:10161400F5CFE5F00900F5CFE6F0640E046EE2C004
:1016240000F0C1EC04F008C000F00A0E046EC1EC36
:1016340004F0090E0024056E000E00BEFF0E066EB7
:10164400000E062205C000F006C001F0000E06BE22
:10165400FF0E026E036E003600900136023603362A
:10166400003600900136023603367A0E0024F66EF8
:10167400400E0120F76E000E0220F86E0900F5CF2F
:1016840000F00900F5CF01F00900F5CF02F00900E0
:10169400F5CF03F0E3C004F0E4C005F0E5C006F0C4
:1016A400E6C007F0E6EC01F000C0E3F001C0E4F0AE
:1016B40002C0E5F003C0E6F00A0E046EE2C000F0DA
:1016C400C1EC04F008C000F000C001F0000E00BE40
:1016D400FF0E026E036E046E01360190023603366D
:1016E4000436013601900236033604367A0E01249C
:1016F400F66E400E0220F76E000E0320F86E09000D
:10170400F5CF00F00900F5CF01F00900F5CF02F0A4
:101714000900F5CF03F0E3C004F0E4C005F0E5C030
:1017240006F0E6C007F0E6EC01F007D2800E0A0AE4
:10173400006E800EE219005C71E20A0E046EE2C0D3
:1017440000F0C1EC04F0090E0024056E000E00BE8A
:10175400FF0E066E000E062205C000F006C001F062
:10176400000E06BEFF0E026E036E003600900136B8
:1017740002360336003600900136023603367A0EFE
:101784000024F66E400E0120F76E000E0220F86E63
:101794000900F5CFE3F00900F5CFE4F00900F5CF37
:1017A400E5F00900F5CFE6F00A0E046EE2C000F0A1
:1017B400C1EC04F008C000F000C001F0000E00BE4F
:1017C400FF0E026E036E046E01360190023603367C
:1017D4000436013601900236033604367A0E0124AB
:1017E400F66E400E0220F76E000E0320F86E09001C
:1017F400F5CF00F00900F5CF01F00900F5CF02F0B4
:101804000900F5CF03F0E3C004F0E4C005F0E5C03F
:1018140006F0E6C007F0E6EC01F08FD1E2C000F07C
:10182400000EE2BFFF0E016E026E036E00360090E2
:10183400013602360336003600900136023603368E
:101844007A0E0024F66E400E0120F76E000E022080
:10185400F86E0900F5CF00F00900F5CF01F009009A
:10186400F5CF02F00900F5CF03F067D1800EE2193D
:10187400006E800E6E0A005CD8A0C0D0640E046EA8
:10188400E2C000F0C1EC04F0120E0024056E000E5C
:1018940000BEFF0E066E000E062205C000F006C054
:1018A40001F0000E06BEFF0E026E036E00360090BD
:1018B400013602360336003600900136023603360E
:1018C400AE0E0024F66E400E0120F76E000E0220CC
:1018D400F86E0900F5CFE3F00900F5CFE4F0090054
:1018E400F5CFE5F00900F5CFE6F0640E046EE2C032
:1018F40000F0C1EC04F008C000F00A0E046EC1EC64
:1019040004F0090E0024056E000E00BEFF0E066EE4
:10191400000E062205C000F006C001F0000E06BE4F
:10192400FF0E026E036E0036009001360236033657
:1019340000360090013602360336AE0E0024F66EF1
:10194400400E0120F76E000E0220F86E0900F5CF5C
:1019540000F00900F5CF01F00900F5CF02F009000D
:10196400F5CF03F0E3C004F0E4C005F0E5C006F0F1
:10197400E6C007F0E6EC01F000C0E3F001C0E4F0DB
:1019840002C0E5F003C0E6F00A0E046EE2C000F007
:10199400C1EC04F008C000F000C001F0000E00BE6D
:1019A400FF0E026E036E046E01360190023603369A
:1019B400043601360190023603360436AE0E012495
:1019C400F66E400E0220F76E000E0320F86E09003A
:1019D400F5CF00F00900F5CF01F00900F5CF02F0D2
:1019E4000900F5CF03F0E3C004F0E4C005F0E5C05E
:1019F40006F0E6C007F0E6EC01F09FD0800E0A0A7C
:101A0400006E800EE219005C71E20A0E046EE2C000
:101A140000F0C1EC04F0090E0024056E000E00BEB7
:101A2400FF0E066E000E062205C000F006C001F08F
:101A3400000E06BEFF0E026E036E003600900136E5
:101A44000236033600360090013602360336AE0EF7
:101A54000024F66E400E0120F76E000E0220F86E90
:101A64000900F5CFE3F00900F5CFE4F00900F5CF64
:101A7400E5F00900F5CFE6F00A0E046EE2C000F0CE
:101A8400C1EC04F008C000F000C001F0000E00BE7C
:101A9400FF0E026E036E046E0136019002360336A9
:101AA400043601360190023603360436AE0E0124A4
:101AB400F66E400E0220F76E000E0320F86E090049
:101AC400F5CF00F00900F5CF01F00900F5CF02F0E1
:101AD4000900F5CF03F0E3C004F0E4C005F0E5C06D
:101AE40006F0E6C007F0E6EC01F027D0E2C000F013
:101AF400000EE2BFFF0E016E026E036E0036009010
:101B040001360236033600360090013602360336BB
:101B1400AE0E0024F66E400E0120F76E000E022079
:101B2400F86E0900F5CF00F00900F5CF01F00900C7
:0C1B3400F5CF02F00900F5CF03F012001D
:101B40000450000A12E10550000A0FE10650000A95
:101B50000CE10750000A09E1FF0E006EFF0E016E56
:101B60007F0E026EFF0E036EA8D0086A096A075046
:101B7000D8B44BEF0EF00350D8B450EF0EF0025033
:101B800006180A6E028E068E0E6A02C008F001C0A8
:101B90000CF000C00DF004500D5E0550D8A0053CBF
:101BA0000C5E0650D8A0063C085E086A0C6A0D6AF6
:101BB000D8A0E2EF0DF0D8900232013200320832A4
:101BC000010E0E6E0750035ED8A0EFEF0DF07E0EF3
:101BD0000E240326D8B055EF0EF0F5EF0DF07E0E73
:101BE0000E240326D8A05AEF0EF0180E0B6E0D36F9
:101BF0000C3608360036013602360E360450005ECA
:101C00000550D8A0053C015E0650D8A0063C025EF7
:101C100006340E120EA010EF0EF00D801BEF0EF02A
:101C2000045000260550D8B0053C01260650D8B017
:101C3000062802260D900B2EF7EF0DF041EF0EF067
:101C4000D8900036013602360E360450005E05503C
:101C5000D8A0053C015E0650D8A0063C025E0634C2
:101C60000E10010B0D26D8B00C2AD8B4082AD8A41F
:101C700041EF0EF008320C320D32032AD8B455EF82
:101C80000EF00AAE089E0850026E0C50016E0D5008
:101C9000006E5DEF0EF0010E10EC05F05DEF0EF042
:101CA000020ED1EC00F05DEF0EF0040EE9EC00F056
:0C1CB0005DEF0EF0080ED8EC00F0120002
:101CBC000001E251390806E3300EE25D03E3010E48
:081CCC00006E01D0006A120055
:101CD4000001A291ADC0AEF018EC0AF0A28112008E
:0E1CE400ACB202D00000FCD7BAC0ADFF1200B7
:101CF2000001DA6BDB6BCE6BCF6BBCC000F0BDC0FA
:101D020001F0BEC002F0010EBC27000EBD23BE23AF
:101D120000C0F6FF01C0F7FF02C0F8FF0900F5CFCF
:101D220000F000C0CBF00052D8B486EF1EF0CB51C9
:101D3200250A0BE0BAC0E1FFBBC0E2FFCBC0E6FF61
:101D4200BA4BBB2BDA4BDB2BD8D7CC6BCD6BCE6B24
:101D5200CF6B23D0CE87010EBC27000EBD23BE233E
:101D620059D0CE81010EBC27000EBD23BE2352D016
:101D7200CE83010EBC27000EBD23BE234BD0CF87DE
:101D8200010EBC27000EBD23BE2344D0CE85010E1A
:101D9200BC27000EBD23BE233DD0BCC0F6FFBDC094
:101DA200F7FFBEC0F8FF0900F5CF01F001502D0A80
:101DB200D1E0BCC0F6FFBDC0F7FFBEC0F8FF09000E
:101DC200F5CF01F00150200ACCE0BCC0F6FFBDC047
:101DD200F7FFBEC0F8FF0900F5CF01F001502B0A52
:101DE200C7E0BCC0F6FFBDC0F7FFBEC0F8FF0900E8
:101DF200F5CF01F00150230AC2E0BCC0F6FFBDC01E
:101E0200F7FFBEC0F8FF0900F5CF01F00150300A1C
:101E1200BDE001D09ED7CEA301D0CE91CEA701D0F6
:101E2200CE95BCC0F6FFBDC0F7FFBEC0F8FF0900EB
:101E3200F5CF00F0000E016E00C0E2F03EDF00526E
:101E420035E0CC6BCD6BCCC000F0CDC001F00A0EFA
:101E5200046E000E056E8CEC09F0BCC0F6FFBDC02E
:101E6200F7FFBEC0F8FF0900F5CF02F002500024D0
:101E7200CC6F000E0120CD6F300ECC5F000ECD5B1B
:101E8200010EBC27000EBD23BE23BCC0F6FFBDC0A1
:101E9200F7FFBEC0F8FF0900F5CF00F0000E016E9B
:101EA20000C0E2F00ADF0052CEE133D0BCC0F6FF40
:101EB200BDC0F7FFBEC0F8FF0900F5CF01F0015029
:101EC2002A0A27E1BFC0E9FFC0C0EAFFEECF00F057
:101ED200EECF01F000C0E9FF01C0EAFFEECFCCF087
:101EE200EECFCDF0BFC0E9FFC0C0EAFF020EEE2484
:101EF200006E000EEE20016EBFC0E1FFC0C0E2FF27
:101F020000C0E6FF01C0E6FF010EBC27000EBD23A4
:101F1200BE23BCC0F6FFBDC0F7FFBEC0F8FF09007C
:101F2200F5CF01F001502E0A6FE1010EBC27000E21
:101F3200BD23BE23BCC0F6FFBDC0F7FFBEC0F8FF85
:101F42000900F5CF01F001502A0A28E1BFC0E9FFDC
:101F5200C0C0EAFFEECF00F0EECF01F000C0E9FF13
:101F620001C0EAFFEECFC9F0EECFCAF0BFC0E9FF71
:101F7200C0C0EAFF020EEE24006E000EEE20016EDB
:101F8200BFC0E1FFC0C0E2FF00C0E6FF01C0E6FF44
:101F9200010EBC27000EBD23BE2335D0C96BCA6B10
:101FA200BCC0F6FFBDC0F7FFBEC0F8FF0900F5CF09
:101FB20000F0000E016E00C0E2F07FDE005223E06E
:101FC200C9C000F0CAC001F00A0E046E000E056E10
:101FD2008CEC09F0BCC0F6FFBDC0F7FFBEC0F8FF35
:101FE2000900F5CF02F002500024C96F000E012053
:101FF200CA6F300EC95F000ECA5B010EBC27000E0D
:10200200BD23BE23CDD703D0C96BCA6BCF89BCC059
:1020120000F0BDC001F0BEC002F0010EBC27000EF0
:10202200BD23BE2300C0F6FF01C0F7FF02C0F8FFC8
:102032000900F5CFCBF0F9D0DAC000F0DBC001F037
:102042008AEF1EF0CE89E3D7CF852ED1CE8BCF81FA
:102052002BD1CF8329D1CE8D27D126D1CE8BCE8F36
:1020620023D1BFC0E9FFC0C0EAFFEECF00F0EECF40
:1020720001F000C0E9FF01C0EAFFEECFD6F0EECFDB
:10208200D7F0BFC0E9FFC0C0EAFF020EEE24006E27
:10209200000EEE20016EBFC0E1FFC0C0E2FF00C033
:1020A200E6FF01C0E6FF000ED71902E1000ED619C5
:1020B20004E1460ED66F000ED76FD86BD96BD8519C
:1020C200D625E96ED951D721EA6EEE520BE0010E08
:1020D200D825006E000ED921016E00C0D8F001C0D3
:1020E200D9F0EDD7C951CA110AE0D951CA5D02E14E
:1020F200D851C95D04E2C9C0D8F0CAC0D9F0CD51E7
:10210200D95D02E1CC51D85D05E2D851CC5FD951FD
:10211200CD5B02D0CC6BCD6BCEB716D0CCC000F06D
:10212200CDC001F0010ECC5F000ECD5B005001105E
:102132000BE0BAC0E1FFBBC0E2FF200EE66EBA4B75
:10214200BB2BDA4BDB2BEAD7D8C002F0D9C003F0A5
:10215200010ED85D006E000ED959016E00C0D8F094
:1021620001C0D9F00250031019E0D6C0E9FFD7C070
:10217200EAFFBAC0E1FFBBC0E2FFEECFE6FFBA4B17
:10218200BB2B010ED625006E000ED721016E00C0BA
:10219200D6F001C0D7F0DA4BDB2BD6D7CEA716D0BC
:1021A200CCC000F0CDC001F0010ECC5F000ECD5BC3
:1021B200005001100BE0BAC0E1FFBBC0E2FF200EED
:1021C200E66EBA4BBB2BDA4BDB2BEAD796D5BFC0F8
:1021D200E9FFC0C0EAFFEECF00F0EECF01F000C091
:1021E200E9FF01C0EAFFEECFCBF0BFC0E9FFC0C0FC
:1021F200EAFF020EEE24006E000EEE20016EBFC05A
:10220200E1FFC0C0E2FF00C0E6FF01C0E6FFCB0E67
:10221200D66F000ED76F010ED86F000ED96F62D73E
:10222200C00ECE13000ECF133FD0CB51000AD8B44C
:1022320003D7CB516C0AD8B405D7CB514C0AD8B4CA
:1022420001D7CB51660AD8B4FFD6CB51450AD8B4D0
:10225200FDD6CB51650AD8B4FAD6CB51670AD8B4A9
:10226200F8D6CB516F0AD8B4F6D6CB51640AD8B49B
:10227200F4D6CB51690AD8B4F0D6CB51700AD8B48F
:10228200EDD6CB51580AD8B4E9D6CB51780AD8B496
:10229200E6D6CB51730AD8B4E4D6CB51630A97E0A1
:1022A200CB51750ABDE0B3D7000ECE15006ECF51EB
:1022B200070B016E00500110D8B42DEF1AF0CFA910
:1022C20004D0060EC96F000ECA6FBFC0E9FFC0C0BE
:1022D200EAFFEECF00F0EECF01F000C0E9FF01C04F
:1022E200EAFFEECFD0F0EECFD1F0EECFD2F0EECFCC
:1022F200D3F0BFC0E9FFC0C0EAFF040EEE24006EB7
:10230200000EEE20016EBFC0E1FFC0C0E2FF00C0C0
:10231200E6FF01C0E6FF046A056A066A076AD0C0E2
:1023220000F0D1C001F0D2C002F0D3C003F05BECE8
:102332000AF0010ED8B0000E006E005205E0D27F06
:10234200030ECE13000ECF13D46BD56BD0C000F0AA
:10235200D1C001F0D2C002F0D3C003F0046A056A12
:10236200066A076A4DEC07F0000ED8A4010E006E53
:102372000052D8B48AD0D3C000F0016A026A036A5C
:10238200FF0E0016000E01167E0E005E000E015AB0
:1023920000C0D4F001C0D5F0010E005E000E015A5B
:1023A20000C0D4F001C0D5F0030E046E000E056E1D
:1023B2008CEC09F000C0D4F001C0D5F00A0E046E16
:1023C200000E056EB4EC09F000C0D4F001C0D5F0E7
:1023D200800E0118026E800E025C02E1000E005CAB
:1023E20005E2010E0001D45F000ED55B0001D4515D
:1023F2000008E26FC2EC0AF0D0C004F0D1C005F0D0
:10240200D2C006F0D3C007F0E6EC01F000C0D6F06F
:1024120001C0D7F002C0D8F003C0D9F0000E046E9C
:10242200000E056E000E066E7F0E076ED6C000F01F
:10243200D7C001F0D8C002F0D9C003F05BEC0AF0BB
:10244200010ED8B0000E006E005205E0010ED45FFE
:10245200000ED55B1AD0000E046E000E056E200E23
:10246200066E820E076ED6C000F0D7C001F0D8C04B
:1024720002F0D9C003F05BEC0AF0000ED8B0010EF6
:10248200006E005202E0D44BD52B800E006E800EFF
:10249200D519005C02E1D451000803E3010ECB6FB1
:1024A20002D0D4C0CBF0CFB118D0CFA315D0800EBC
:1024B200D519006E7F0E005C02E1FC0ED45D0BE3C9
:1024C200800ED519006E800ECA19005C02E1C95156
:1024D200D45D01E201D001D0F1D3C951CA1106E0A5
:1024E200CFA304D0010EC95F000ECA5B000E006EBE
:1024F200CA51005C02E1C951080803E2080ECB6F21
:1025020002D0C9C0CBF0D0C000F0D1C001F0D2C01F
:1025120002F0D3C003F0046A056A066A076A4DEC4A
:1025220007F0000ED8A4010E006E0052D8B44BD1B1
:10253200D4C0E2F0C2EC0AF000C004F001C005F021
:1025420002C006F003C007F0D0C000F0D1C001F015
:10255200D2C002F0D3C003F0A0EC0DF000C0D0F066
:1025620001C0D1F002C0D2F003C0D3F00001CB51C0
:102572000008E26FC2EC0AF000C004F001C005F0EE
:1025820002C006F003C007F0D0C000F0D1C001F0D5
:10259200D2C002F0D3C003F0A0EC0DF000C0DCF01A
:1025A20001C0DDF002C0DEF003C0DFF0DCC0D0F01D
:1025B200DDC0D1F0DEC0D2F0DFC0D3F0DCC000F06D
:1025C200DDC001F0DEC002F0DFC003F064EC07F012
:1025D20075EC09F000C004F001C005F002C006F07D
:1025E20003C007F0DCC000F0DDC001F0DEC002F085
:1025F200DFC003F088EC09F0000E046E000E056ED9
:10260200000E066E7E0E076E5BEC0AF0000ED8B06E
:10261200010E006E00521AE0D0C000F0D1C001F0ED
:10262200D2C002F0D3C003F0000E046E000E056E9D
:10263200000E066E7E0E076E85EC02F000C0D0F032
:1026420001C0D1F002C0D2F003C0D3F0D0C000F07C
:10265200D1C001F0D2C002F0D3C003F064EC07F0A5
:102662000001CB51010F096E0A6A000E0A2209C04D
:1026720004F00AC005F0000E0ABEFF0E066E076ED9
:1026820004360490053606360736043604900536BD
:1026920006360736400E0424F66E410E0520F76E0C
:1026A200000E0620F86E0900F5CF05F00900F5CFFF
:1026B20006F00900F5CF07F00900F5CF08F0085041
:1026C200035C08E10750025C05E10650015C02E18F
:1026D2000550005C1EE30001D0C000F0D1C001F043
:1026E200D2C002F0D3C003F0CD0E046ECC0E056E44
:1026F2004C0E066E7B0E076EE6EC01F000C0D0F0C9
:1027020001C0D1F002C0D2F003C0D3F0D44BD52B1C
:102712005AD0D0C000F0D1C001F0D2C002F0D3C074
:1027220003F064EC07F0CBC004F0000E056E066EF9
:10273200076E0436049005360636073604360490D2
:10274200053606360736400E0424F66E410E052085
:10275200F76E000E0620F86E0900F5CF05F00900AD
:10276200F5CF06F00900F5CF07F00900F5CF08F024
:102772000850035C08E10750025C05E10650015C69
:1027820002E10550005C1FE20001D0C000F0D1C0A0
:1027920001F0D2C002F0D3C003F0000E046E000EAE
:1027A200056E200E066E820E076EE6EC01F000C08A
:1027B200D0F001C0D1F002C0D2F003C0D3F0010EBC
:1027C200D45F000ED55B0001CFA393D0CFB791D0D9
:1027D200800E000A006E800ECA19005C02E1C95127
:1027E2000A0804E20A0EC96F000ECA6FD0C000F0D8
:1027F200D1C001F0D2C002F0D3C003F064EC07F004
:1028020000C0D6F001C0D7F002C0D8F003C0D9F0A2
:10281200D651D711D811D91142E00A0E046E000E1A
:10282200056E066E076ED6C000F0D7C001F0D8C0A4
:1028320002F0D9C003F0FFEC07F008C000F009C0B5
:1028420001F00AC002F00BC003F0000E046E031880
:1028520008E10450021805E10450011802E1005099
:10286200000A1DE1010EC95F000ECA5B0A0E046E6A
:10287200000E056E066E076ED6C000F0D7C001F0DE
:10288200D8C002F0D9C003F0FFEC07F000C0D6F0C8
:1028920001C0D7F002C0D8F003C0D9F0B9D7800E7A
:1028A200CA19006E800E005C02E1CB51C95D21E2C3
:1028B200C951CB5DE26FC2EC0AF000C004F001C066
:1028C20005F002C006F003C007F0D0C000F0D1C08E
:1028D20001F0D2C002F0D3C003F0A0EC0DF000C0B2
:1028E200D0F001C0D1F002C0D2F003C0D3F0C9C011
:1028F200CBF0050E0001C925006E000ECA21016E43
:102902000050CC5F0150CD5BC951CA1103E1CFB772
:1029120001D004D0010ECC5F000ECD5B030ECE15AC
:10292200006ECFC001F0000E01160050011004E04D
:10293200010ECC5F000ECD5BCEA539D0CEA312D056
:10294200CEA103D02D0EC16F02D02B0EC16FBAC023
:10295200E1FFBBC0E2FFC1C0E6FFBA4BBB2BDA4BC3
:10296200DB2B0CD0CEA10AD0BAC0E1FFBBC0E2FF84
:10297200200EE66EBA4BBB2BDA4BDB2B800E006EC1
:10298200800ECD19005C02E1CC5100080FE2BAC002
:10299200E1FFBBC0E2FF300EE66EBA4BBB2BDA4B57
:1029A200DB2B010ECC5F000ECD5BE8D73AD0CEB761
:1029B20018D0800E006E800ECD19005C02E1CC5161
:1029C20000080FE2BAC0E1FFBBC0E2FF200EE66ED4
:1029D200BA4BBB2BDA4BDB2B010ECC5F000ECD5B6F
:1029E200E8D7CEA312D0CEA103D02D0EC26F02D053
:1029F2002B0EC26FBAC0E1FFBBC0E2FFC2C0E6FF4E
:102A0200BA4BBB2BDA4BDB2B0CD0CEA10AD0BAC00F
:102A1200E1FFBBC0E2FF200EE66EBA4BBB2BDA4BE6
:102A2200DB2BD0C000F0D1C001F0D2C002F0D3C085
:102A320003F064EC07F000C0D6F001C0D7F002C08A
:102A4200D8F003C0D9F0CBC000F0000E016E026EC8
:102A5200036E0036009001360236033600360090CF
:102A6200013602360336400E0024F66E410E012076
:102A7200F76E000E0220F86E0900F5CF04F009008F
:102A8200F5CF05F00900F5CF06F00900F5CF07F004
:102A9200D6C000F0D7C001F0D8C002F0D9C003F010
:102AA200FFEC07F0300E0026BAC0E1FFBBC0E2FF28
:102AB20000C0E6FFBA4BBB2BDA4BDB2BC951CA1164
:102AC20003E1CFB701D06FD0BAC0E1FFBBC0E2FFD4
:102AD2002E0EE66EBA4BBB2BDA4BDB2BCB51C95F0A
:102AE200000ECA5BCB534DE0CB07CBC000F0000E0B
:102AF200016E026E036E0036009001360236033616
:102B020000360090013602360336400E0024F66E7F
:102B1200410E0120F76E000E0220F86E0900F5CF7B
:102B220004F00900F5CF05F00900F5CF06F0090021
:102B3200F5CF07F0D6C000F0D7C001F0D8C002F040
:102B4200D9C003F0FFEC07F00A0E046E000E056E0A
:102B5200066E076EFFEC07F008C000F009C001F036
:102B62000AC002F00BC003F0300E0026BAC0E1FF2B
:102B7200BBC0E2FF00C0E6FFBA4BBB2BDA4BDB2B3C
:102B8200B1D7C951CA110FE0BAC0E1FFBBC0E2FF21
:102B9200300EE66EBA4BBB2BDA4BDB2B010EC95F54
:102BA200000ECA5BEED7CEAB0BD0BAC0E1FFBBC002
:102BB200E2FF450EE66EBA4BBB2BDA4BDB2B0AD09B
:102BC200BAC0E1FFBBC0E2FF650EE66EBA4BBB2B9B
:102BD200DA4BDB2B800ED519006E800E005C02E111
:102BE200000ED45D11E2D4510008D46FD551000E0D
:102BF200D557BAC0E1FFBBC0E2FF2D0EE66EBA4B5D
:102C0200BB2BDA4BDB2B0AD0BAC0E1FFBBC0E2FF21
:102C12002B0EE66EBA4BBB2BDA4BDB2B0A0E046E85
:102C2200000E056ED4C000F0D5C001F0B4EC09F07E
:102C3200300E0026BAC0E1FFBBC0E2FF00C0E6FFD3
:102C42000001BA4BBB2BDA4BDB2B0A0E046E000ED3
:102C5200056ED4C000F0D5C001F0B4EC09F008C094
:102C620000F009C001F0300E0026BAC0E1FFBBC07F
:102C7200E2FF00C0E6FF0001BA4BBB2BDA4BDB2BB5
:102C8200CEA71AD0800E006E800ECD19005C02E134
:102C9200CC51000811E2BAC0E1FFBBC0E2FF200E36
:102CA200E66EBA4BBB2BDA4BDB2B010ECC5F000E70
:102CB200CD5BCC51CD11EFE17EEF0EF0CFA3F3D07F
:102CC200800ED519006E800E005C02E1000ED45D0C
:102CD2000AE2010ED45D006E000ED559016E00505D
:102CE200C95F0150CA5BD0C000F0D1C001F0D2C0B0
:102CF20002F0D3C003F064EC07F000C0D6F001C0CC
:102D0200D7F002C0D8F003C0D9F0010ECB6FCB517F
:102D12000A0A34E0CBC000F0000E016E026E036EB0
:102D22000036009001360236033600360090013636
:102D320002360336400E0024F66E410E0120F76E75
:102D4200000E0220F86E0900F5CF01F00900F5CF60
:102D520002F00900F5CF03F00900F5CF04F00450AA
:102D6200D95D08E10350D85D05E10250D75D02E16B
:102D72000150D65D01E202D0CB2BC9D7CB51C95D40
:102D8200E06F000ECA59E16FE0C0C9F0E1C0CAF0BD
:102D9200D6C000F0D7C001F0D8C002F0D9C003F00D
:102DA20075EC09F000C004F001C005F002C006F0A5
:102DB20003C007F0D0C000F0D1C001F0D2C002F0D1
:102DC200D3C003F088EC09F000C0DCF001C0DDF0F4
:102DD20002C0DEF003C0DFF0E0C0E2F0C2EC0AF0B5
:102DE200DCC004F0DDC005F0DEC006F0DFC007F095
:102DF200E6EC01F0000E046E000E056E000E066E8B
:102E02007E0E076E85EC02F064EC07F000C0D6F08F
:102E120001C0D7F002C0D8F003C0D9F0C951CA111D
:102E220042E00A0E046E000E056E066E076ED6C0F4
:102E320000F0D7C001F0D8C002F0D9C003F0FFEC17
:102E420007F008C000F009C001F00AC002F00BC090
:102E520003F0000E046E031808E10450021805E1A5
:102E62000450011802E10050000A1DE10A0E046E2E
:102E7200000E056E066E076ED6C000F0D7C001F0D8
:102E8200D8C002F0D9C003F0FFEC07F000C0D6F0C2
:102E920001C0D7F002C0D8F003C0D9F0010EC95F5B
:102EA200000ECA5BBBD7800E006E800ECA19005C92
:102EB20002E1C9510C0816E3C9C0E2F0D0EC05F0FA
:102EC200D0C004F0D1C005F0D2C006F0D3C007F0E4
:102ED20085EC02F000C0D0F001C0D1F002C0D2F007
:102EE20003C0D3F0D0C000F0D1C001F0D2C002F0D4
:102EF200D3C003F0046A056A066A076A4DEC07F05C
:102F0200000ED8A4010E006E0052D8B477D0D0C003
:102F120000F0D1C001F0D2C002F0D3C003F064ECE3
:102F220007F0000E046E031808E10450021805E1D0
:102F32000450011802E10050000A60E1800E006EA8
:102F4200800ED519005C02E1D451010857E2D4C0C9
:102F5200E2F0C2EC0AF000C004F001C005F002C0C9
:102F620006F003C007F0D0C000F0D1C001F0D2C01B
:102F720002F0D3C003F0A0EC0DF05F0E046E700EF1
:102F8200056E090E066E810E076E5BEC0AF0010EED
:102F9200D8B0000E006E005206E0090E0001D45FA8
:102FA200000ED55B05D00001080ED45F000ED55B84
:102FB200D4C0E2F0C2EC0AF000C004F001C005F097
:102FC20002C006F003C007F0D0C000F0D1C001F08B
:102FD200D2C002F0D3C003F0A0EC0DF064EC07F015
:102FE20000C0D6F001C0D7F002C0D8F003C0D9F0BB
:102FF2000001D06BD16BD26BD36B38D0D0C000F054
:10300200D1C001F0D2C002F0D3C003F064EC07F0EB
:1030120000C0D6F001C0D7F002C0D8F003C0D9F08A
:10302200D6C000F0D7C001F0D8C002F0D9C003F07A
:1030320075EC09F000C004F001C005F002C006F012
:1030420003C007F0D0C000F0D1C001F0D2C002F03E
:10305200D3C003F088EC09F000C0D0F001C0D1F079
:1030620002C0D2F003C0D3F0D46BD56B010ECB6F8C
:10307200CB510A0A34E0CBC000F0000E016E026EA2
:10308200036E003600900136023603360036009099
:10309200013602360336400E0024F66E410E012040
:1030A200F76E000E0220F86E0900F5CF01F009005C
:1030B200F5CF02F00900F5CF03F00900F5CF04F0D7
:1030C2000450D95D08E10350D85D05E10250D75D97
:1030D20002E10150D65D01E202D0CB2BC9D7CB5120
:1030E200C925006E000ECA21016ED4510026D551A9
:1030F20001220050CC5F0150CD5BCFB704D0C95143
:10310200CA1101E104D0010ECC5F000ECD5B030EAB
:10311200CE15006ECFC001F0000E01160050011056
:1031220004E0010ECC5F000ECD5BCEA539D0CEA35C
:1031320012D0CEA103D02D0EC36F02D02B0EC36FBF
:10314200BAC0E1FFBBC0E2FFC3C0E6FFBA4BBB2B74
:10315200DA4BDB2B0CD0CEA10AD0BAC0E1FFBBC048
:10316200E2FF200EE66EBA4BBB2BDA4BDB2B800E56
:10317200006E800ECD19005C02E1CC5100080FE216
:10318200BAC0E1FFBBC0E2FF300EE66EBA4BBB2B0A
:10319200DA4BDB2B010ECC5F000ECD5BE8D73AD0C9
:1031A200CEB718D0800E006E800ECD19005C02E101
:1031B200CC5100080FE2BAC0E1FFBBC0E2FF200E13
:1031C200E66EBA4BBB2BDA4BDB2B010ECC5F000E4B
:1031D200CD5BE8D7CEA312D0CEA103D02D0EC46F03
:1031E20002D02B0EC46FBAC0E1FFBBC0E2FFC4C065
:1031F200E6FFBA4BBB2BDA4BDB2B0CD0CEA10AD0AD
:10320200BAC0E1FFBBC0E2FF200EE66EBA4BBB2B99
:10321200DA4BDB2BCBC000F0CB0700524CE0CBC02B
:1032220000F0000E016E026E036E00360090013651
:103232000236033600360090013602360336400E5F
:103242000024F66E410E0120F76E000E0220F86E89
:103252000900F5CF04F00900F5CF05F00900F5CF1C
:1032620006F00900F5CF07F0D6C000F0D7C001F094
:10327200D8C002F0D9C003F0FFEC07F00A0E046ECA
:10328200000E056E066E076EFFEC07F008C000F038
:1032920009C001F00AC002F00BC003F0300E002694
:1032A200BAC0E1FFBBC0E2FF00C0E6FFBA4BBB2BD6
:1032B200DA4BDB2BAFD7800E006E800ED519005C87
:1032C20002E1D45100080FE2BAC0E1FFBBC0E2FF45
:1032D200300EE66EBA4BBB2BDA4BDB2B010ED45F02
:1032E200000ED55BE8D7800E000A006E800ECA1968
:1032F200005C02E1C951080803E2080ECB6F02D05C
:10330200C9C0CBF0CB51C95F000ECA5BCB5303E1FE
:10331200CFB701D00AD0BAC0E1FFBBC0E2FF2E0E88
:10332200E66EBA4BBB2BDA4BDB2BCBC0E2F0C2EC26
:103332000AF0D0C004F0D1C005F0D2C006F0D3C06C
:1033420007F0E6EC01F038EC05F000C0D6F001C061
:10335200D7F002C0D8F003C0D9F0CB534DE0CB0771
:10336200CBC000F0000E016E026E036E00360090BC
:103372000136023603360036009001360236033635
:10338200400E0024F66E410E0120F76E000E022060
:10339200F86E0900F5CF04F00900F5CF05F0090039
:1033A200F5CF06F00900F5CF07F0D6C000F0D7C080
:1033B20001F0D8C002F0D9C003F0FFEC07F00A0E0A
:1033C200046E000E056E066E076EFFEC07F008C075
:1033D20000F009C001F00AC002F00BC003F0300E89
:1033E2000026BAC0E1FFBBC0E2FF00C0E6FFBA4B55
:1033F200BB2BDA4BDB2BB1D7C951CA110FE0BAC0D4
:10340200E1FFBBC0E2FF300EE66EBA4BBB2BDA4BDC
:10341200DB2B010EC95F000ECA5BEED7CEA71AD016
:10342200800E006E800ECD19005C02E1CC510008C6
:1034320011E2BAC0E1FFBBC0E2FF200EE66EBA4B5A
:10344200BB2BDA4BDB2B010ECC5F000ECD5BCC51DC
:10345200CD11EFE17EEF0EF0C00ECE15016ECFC0A2
:1034620002F0000E0216000E021802E1000E011810
:10347200D8A480D0CEA927D0BFC0E9FFC0C0EAFF40
:10348200EECF00F0EECF01F000C0E9FF01C0EAFF8D
:10349200EECFD6F0EECFD7F0EECFD8F0EECFD9F018
:1034A200BFC0E9FFC0C0EAFF040EEE24006E000EAA
:1034B200EE20016EBFC0E1FFC0C0E2FF00C0E6FF28
:1034C20001C0E6FF2FD0BFC0E9FFC0C0EAFFEECFC8
:1034D20000F0EECF01F000C0E9FF01C0EAFFEECF3D
:1034E20000F0EECF01F0000E01BEFF0E026E036E81
:1034F20000C0D6F001C0D7F002C0D8F003C0D9F0A6
:10350200BFC0E9FFC0C0EAFF020EEE24006E000E4B
:10351200EE20016EBFC0E1FFC0C0E2FF00C0E6FFC7
:1035220001C0E6FF800ED919006E800E005C08E132
:10353200000ED85D05E1000ED75D02E1000ED65DFA
:1035420018E2030ECE13000ECF13006A016A026A5C
:10355200036AD651005ED751015AD851025AD95145
:10356200035A00C0D6F001C0D7F002C0D8F003C0A1
:10357200D9F04ED0CEA927D0BFC0E9FFC0C0EAFF24
:10358200EECF00F0EECF01F000C0E9FF01C0EAFF8C
:10359200EECFD6F0EECFD7F0EECFD8F0EECFD9F017
:1035A200BFC0E9FFC0C0EAFF040EEE24006E000EA9
:1035B200EE20016EBFC0E1FFC0C0E2FF00C0E6FF27
:1035C20001C0E6FF25D0BFC0E9FFC0C0EAFFEECFD1
:1035D20000F0EECF01F000C0E9FF01C0EAFFEECF3C
:1035E200D6F0EECFD7F0000ED86FD96FBFC0E9FF8B
:1035F200C0C0EAFF020EEE24006E000EEE20016E45
:10360200BFC0E1FFC0C0E2FF00C0E6FF01C0E6FFAD
:10361200000ECA1902E1000EC9190FE1000E006E78
:10362200D91908E10050D81905E10050D71902E173
:10363200D651000A02E1C94BCA2BC00ECE15006E4C
:1036420000C005F0AED0010ECB6FCB510A0A34E0B8
:10365200CBC000F0000E016E026E036E00360090C9
:103662000136023603360036009001360236033642
:10367200400E0024F66E410E0120F76E000E02206D
:10368200F86E0900F5CF01F00900F5CF02F009004C
:10369200F5CF03F00900F5CF04F00450D95D08E13D
:1036A2000350D85D05E10250D75D02E10150D65DBD
:1036B20001E202D0CB2BC9D782D0010ECB6FCB5106
:1036C200080A34E0CBC000F0000E016E026E036EF9
:1036D200003600900136023603360036009001367D
:1036E20002360336680E0024F66E410E0120F76E94
:1036F200000E0220F86E0900F5CF01F00900F5CFA7
:1037020002F00900F5CF03F00900F5CF04F00450F0
:10371200D95D08E10350D85D05E10250D75D02E1B1
:103722000150D65D01E202D0CB2BC9D748D0010EA1
:10373200CB6FCB510C0A34E0CBC000F0000E016E0F
:10374200026E036E003600900136023603360036F2
:103752000090013602360336E20E0024F66E400E69
:103762000120F76E000E0220F86E0900F5CF01F07D
:103772000900F5CF02F00900F5CF03F00900F5CFFB
:1037820004F00450D95D08E10350D85D05E1025010
:10379200D75D02E10150D65D01E202D0CB2BC9D741
:1037A2000ED00550000AD8B44ED70550C00AD8B47E
:1037B2004AD70550800A81E00550400AB8E0800EE1
:1037C200006E800ECA19005C02E1C951CB5D03E2B2
:1037D200C9C0CBF00DD0800ECA19006E800E005CFD
:1037E20002E1CB51C95D04E2CBC0C9F0000ECA6F41
:1037F200CC51CD110EE0030ECE15006ECFC001F0FC
:10380200000E01160050011004E0010ECC5F000E04
:10381200CD5B800ECA19006E800ECD19005C02E1EC
:10382200CC51C95D05E2C951CC5FCA51CD5B02D012
:10383200CC6BCD6BC40ECE15016ECF51080B026E50
:103842000250080A02E1400E011808E1CC51CD11E4
:1038520004E0010ECC5F000ECD5B1CD0C00ECE1575
:10386200016ECF51080B026E0250080A02E1800E6F
:10387200011810E1800E006E800ECD19005C02E18D
:10388200CC51020805E2020ECC5F000ECD5B02D0E5
:10389200CC6BCD6BCEA55DD0CEA312D0CEA103D082
:1038A2002D0EC56F02D02B0EC56FBAC0E1FFBBC093
:1038B200E2FFC5C0E6FFBA4BBB2BDA4BDB2B34D0A1
:1038C200CEA10BD0BAC0E1FFBBC0E2FF200EE66E74
:1038D200BA4BBB2BDA4BDB2B27D0C00ECE15016EB9
:1038E200CF51080B026E0250080A02E1800E011845
:1038F2001BE1BAC0E1FFBBC0E2FF300EE66EBA4B7D
:10390200BB2BDA4BDB2BCEAB03D0580EC66F02D0EB
:10391200780EC66FBAC0E1FFBBC0E2FFC6C0E6FFC9
:10392200BA4BBB2BDA4BDB2BCC51CD1111E0BAC019
:10393200E1FFBBC0E2FF300EE66EBA4BBB2BDA4BA7
:10394200DB2B010ECC5F000ECD5BCC51CD11EFE134
:1039520074D0CC51CD1113E0CEB711D0BAC0E1FF73
:10396200BBC0E2FF200EE66EBA4BBB2BDA4BDB2B61
:10397200010ECC5F000ECD5BCC51CD11EFE1CEA399
:1039820012D0CEA103D02D0EC76F02D02B0EC76F5F
:10399200BAC0E1FFBBC0E2FFC7C0E6FFBA4BBB2B18
:1039A200DA4BDB2B0CD0CEA10AD0BAC0E1FFBBC0F0
:1039B200E2FF200EE66EBA4BBB2BDA4BDB2BC00EBE
:1039C200CE15016ECF51080B026E0250080A02E1B9
:1039D200400E01180BE1BAC0E1FFBBC0E2FF300E9E
:1039E200E66EBA4BBB2BDA4BDB2B27D0C00ECE15C3
:1039F200016ECF51080B026E0250080A02E1800EDE
:103A020001181BE1BAC0E1FFBBC0E2FF300EE66E57
:103A1200BA4BBB2BDA4BDB2BCEAB03D0580EC86FA5
:103A220002D0780EC86FBAC0E1FFBBC0E2FFC8C0C7
:103A3200E6FFBA4BBB2BDA4BDB2B800E006E800EFF
:103A4200CA19005C02E1C951CB5D0BE2BAC0E1FFC9
:103A5200BBC0E2FF300EE66EBA4BBB2BDA4BDB2B60
:103A6200ECD7C9C000F0CAC001F0010EC95F000E58
:103A7200CA5B00500110D8B42AD1C00ECE15006E18
:103A820000C0DCF00AD1C9C000F0CAC001F0000ECB
:103A9200CABFFF0E026E036E003600900136023678
:103AA200033600360090013602360336400E0024FB
:103AB200F66E410E0120F76E000E0220F86E09002C
:103AC200F5CF04F00900F5CF05F00900F5CF06F0B7
:103AD2000900F5CF07F0D6C000F0D7C001F0D8C07A
:103AE20002F0D9C003F0FFEC07F00A0E046E000EDC
:103AF200056E066E076EFFEC07F008C000F009C005
:103B020001F00AC002F00BC003F0300E0024CB6FAC
:103B1200D3D0CEAB45D0C9C000F0CAC001F0000E70
:103B2200CABFFF0E026E036E0036009001360236E7
:103B3200033600360090013602360336680E002442
:103B4200F66E410E0120F76E000E0220F86E09009B
:103B5200F5CF04F00900F5CF05F00900F5CF06F026
:103B62000900F5CF07F0D6C000F0D7C001F0D8C0E9
:103B720002F0D9C003F0FFEC07F00F0E0016000EA2
:103B8200011602160316990E0024F66E410E01204C
:103B9200F76E000E0220F86E0900F5CFCBF044D08C
:103BA200C9C000F0CAC001F0000ECABFFF0E026E0B
:103BB200036E00360090013602360336003600905E
:103BC200013602360336680E0024F66E410E0120DD
:103BD200F76E000E0220F86E0900F5CF04F009001E
:103BE200F5CF05F00900F5CF06F00900F5CF07F093
:103BF200D6C000F0D7C001F0D8C002F0D9C003F09F
:103C0200FFEC07F00F0E0016000E01160216031647
:103C1200880E0024F66E410E0120F76E000E02207F
:103C2200F86E0900F5CFCBF047D0C9C000F0CAC08A
:103C320001F0000ECABFFF0E026E036E0036009046
:103C4200013602360336003600900136023603365C
:103C5200E20E0024F66E400E0120F76E000E0220E6
:103C6200F86E0900F5CF04F00900F5CF05F0090060
:103C7200F5CF06F00900F5CF07F0D6C000F0D7C0A7
:103C820001F0D8C002F0D9C003F0FFEC07F0070E34
:103C92000014CB6F300ECB270FD0DC51000AD8B402
:103CA200F2D6DC51C00AD8B4EED6DC51800AD8B4C0
:103CB20030D7DC51400AB9E0BAC0E1FFBBC0E2FF35
:103CC200CBC0E6FFBA4BBB2BDA4BDB2BCAD6CEA757
:103CD2001AD0800E006E800ECD19005C02E1CC512C
:103CE200000811E2BAC0E1FFBBC0E2FF200EE66E9F
:103CF200BA4BBB2BDA4BDB2B010ECC5F000ECD5B3C
:103D0200CC51CD11EFE17EEF0EF0DAC000F0DBC056
:043D120001F01200AA
:103D1600E40E0001966F1C0E976FBA0E986F000E98
:103D2600996FE80EA46F3E0EA56F000EA66F000EEB
:103D3600A76FFF0E9E6FFF0E9F6F000EA06F000E07
:103D4600A16FFF0E9A6FFF0E9B6F000E9C6F000E09
:103D56009D6FAC8A900EAB6E948E949C9EAA03D0F7
:083D6600AECF00F0FBD7120004
:103D6E000900F5CFE6FF0006FBE10106F9E11200BE
:103D7E009594959295969598959A959E8C948C92ED
:103D8E008C9E8C9A8C988C9622EC05F022EC05F089
:103D9E0022EC05F08C888C868C8432EC05F08C94A9
:103DAE0022EC05F08C8432EC05F08C9422EC05F0BC
:103DBE008C8432EC05F08C9422EC05F08C968C847D
:103DCE0032EC05F08C9422EC05F08C8432EC05F08C
:103DDE008C948C988C8E8C8432EC05F08C9422EC26
:103DEE0005F08C9E8C868C8432EC05F08C948C962F
:103DFE008C8432EC05F08C9422EC05F08C8432EC41
:103E0E0005F08C948C868C8432EC05F08C9422EC2C
:103E1E0005F08C968C8432EC05F08C948C8E8C8A0A
:103E2E008C888C868C8432EC05F08C9422EC05F018
:063E3E000001A281120048
:103E440010D0800E0001A86F1AD0C00EA86F17D032
:103E5400940EA86F14D0D40EA86F11D0800EA86F42
:103E64000ED00001A851010AECE0A851020AEDE0CD
:103E7400A851030AEDE0A851040AEDE0EFD7A90523
:103E8400006EA851002600C0A8F000C0AEF018ECE7
:103E94000AF0A291AC6BAC51AA25E96E000EAB21DD
:103EA400EA6EEE520CE0AC51AA25E96E000EAB218D
:103EB400EA6EEECFADF06AEC0EF0AC2BECD7A2813B
:023EC4001200EA
:103EC6000001A36B0A0EA35D0BE25F0EE16E000E0E
:103ED600E26EA351E126D8B0E22AE66AA32BF2D716
:023EE6001200C8
:103EE800AECF01F0ABA202D0AB98AB8801C000F016
:023EF8001200B6
:103EFA000001B26BAFC0E9FFB0C0EAFFEECFB1F08C
:103F0A00B151000A0FE0B1C0BAF072EC0EF0000134
:103F1A00B22BB251AF25E96E000EB021EA6EEECF98
:063F2A00B1F0EED7120019
:103F3000B40E0001B86F000EB96FAFC0BAF0B0C0D8
:103F4000BBF0B1C0BCF0B2C0BDF0B3C0BEF0B80EA3
:103F5000BF6F000EC06F79EC0EF000C0B6F001C06C
:103F6000B7F00050AF25E16E0150B021E26EE66A75
:0A3F7000B6C000F0B7C001F0120067
:103F7A00DEEC20F0FFDE010EAE6F18EC0AF00C0E3C
:103F8A00AE6F18EC0AF0020EA86F0C0EA96F220E83
:103F9A00AA6F000EAB6F51DF020EA86F050EA96F54
:103FAA00200EAA6F000EAB6F48DF0F0EC112070E6C
:103FBA00B412816A8A6A9380846A8D6A9690836A47
:103FCA008C6A9590F292F288F18C9E9A9D8AF28E72
:103FDA00F28CB886040EB06E110EAF6EAC8496DE0B
:103FEA00010EA86F010EA96F290EAA6F000EAB6F02
:103FFA0024DF020EA86F020EA96F300EAA6F000E00
:10400A00AB6F1BDF020EA86F090EA96F3A0EAA6FDB
:10401A00000EAB6F12DF81A015D08D808C90010E3F
:10402A00A86F080EA96F330EAA6F000EAB6F05DFDB
:10403A00020EA86F0C0EA96F870EAA6F000EAB6F47
:10404A00FCDE14D08C808D90010EA86F080EA96F2B
:10405A003F0EAA6F000EAB6FF0DE020EA86F050EC0
:10406A00A96F780EAA6F000EAB6FE7DEB9D7FFD73C
:1041BC0010EE1FF02E0E006E010E016E120EF66E3A
:0E41CC00410EF76E000EF86EB7EC1EF01200FA
:10407A000000007FCDCC4C7B0AD723786F120375E2
:10408A0017B75171ACC5276EBD37066B95BF56671A
:10409A0077CC2B645F700961FFE65B5D08E53C3C09
:0440AA006042221B33
:1040AE000000007F000020820000488500007A8812
:1040BE0000401C8C0050438F0024749280961896FA
:1040CE0020BC3E99286B6E9CF90215A0EC782DC190
:0440DE00CAF249E2F7
:1040E2000100000008000000400000000002000083
:1040F200001000000080000000000400000020000A
:104102000000000100000008000000400000000064
:01411200406C
:0241130030007A
:02411500310077
:0141170000A7
:014118002680
:0141190000A5
:02411A000000A3
:07411C0053544154555300B8
:034123004F5000FA
:07412600434C4F53454400D8
:03412D00434C0000
:0241300000008D
:074132004F50454E454400CB
:07413900286E756C6C290073
:10414000010000000A00000064000000E803000015
:1041500010270000A086010040420F0080969800C2
:0841600000E1F50500CA9A3BDD
:104168000100000010000000000100000010000025
:104178000000010000001000000000010000001015
:1041880030313233343536373839616263646566C5
:014198000026
:104199003031323334353637383941424344454674
:0141A9000015
:0641AA00407325642600AD
:0641B000405325642600C7
:0341B6002564007D
:0341B9002564007A
:020000040030CA
:0E000000240C1E1EFF8381FF0FC00FE00F4077
:00000001FF
