:100000000C944E010C947F010C947F010C947F01A1
:100010000C947F010C947F010C947F010C947F0160
:100020000C947F010C947F010C947F010C947F0150
:100030000C947F010C947F010C947F010C947F0140
:100040000C947F010C947F010C947F010C947F0130
:100050000C947F010C947F010C947F010C94C209D5
:100060000C947F010C948C090C9462090C947F0110
:100070000C947F010C947F010C947F010C947F0100
:100080000C947F010C947F010C947F010C947F01F0
:100090000C947F010C947F010C947F010C940C0A4A
:1000A0000C947F010C947F010C947F010C947F01D0
:1000B0000C947F010C947F010C947F010C947F01C0
:1000C0000C947F010C947F010C947F010C947F01B0
:1000D0000C947F010C947F010C942C090C94020960
:1000E0000C947F010C941C030C94F9050C941203DE
:1000F0000C94720E0C94B7010C9482010C94B6040B
:100100000C940B030C9430030C9407030C942A03F7
:100110000C9442030C943D030C94FD020C943E039A
:100120000C949C040C942A020C9438030C948101C6
:100130000C9426030C948D040C94300B0C94E80161
:100140000C94E3040C9434030C94C6010C94030344
:100150000C94AF040C9418030C94DA010C94220351
:100160000C9477020C9483010C94E1060C940F0319
:100170000C948C040C94250400002100240027001A
:100180002A002D00300033000101000004010701A6
:100190000A0100002200250028002B002E0031005B
:1001A000340002010000050108010B0100002000DD
:1001B0002300260029002C002F003200000100003F
:1001C00003010601090105050505070508080808DA
:1001D000020202020A0A08080404040401010101DF
:1001E00001010101030303030303030304070707DA
:1001F0000C0C0C0C0C0C0C0C02020202060606067F
:10020000060606060B0B0B0B0B0B0B0B010210204B
:10021000200808102040102040800201020108043C
:1002200002010102040810204080804020100804D0
:100230000201800402018040201008040201080429
:10024000020101020408102040800102040810206D
:10025000408000000A0B02090C0D0E080703040180
:10026000000000000000000000000000000000008E
:10027000000000000000000000000000000012115B
:10028000100000000000000000000000000000005E
:100290000000000000000000300B720E11241FBE91
:1002A000CFEFD1E2DEBFCDBF00E00CBF25E0AAE179
:1002B000B3E001C01D92A336B207E1F713E0A0E05E
:1002C000B2E0E2E1F2E200E00BBF02C007900D9263
:1002D000AA31B107D9F711E0CDE4D1E000E006C0C2
:1002E00021970109802FFE010E94D90ECC34D1073D
:1002F00080E00807A9F70E94B50B0C94F7100C9446
:10030000000008950895AF92BF92CF92DF92EF92CE
:10031000FF920F931F93CF93DF936C017B018B01AF
:10032000040F151FEB015E01AE18BF08C017D107FF
:1003300059F06991D601ED91FC910190F081E02D89
:10034000C6011995892B79F7C501DF91CF911F91CE
:100350000F91FF90EF90DF90CF90BF90AF900895F6
:10036000FB0144815581608171810C948301FC0102
:10037000538D448D252F30E0842F90E0821B930B0A
:10038000541710F0CF96089501970895FC01918DB0
:10039000828D981761F0A28DAE0FBF2FB11D5D96B3
:1003A0008C91928D9F5F9F73928F90E008958FEF55
:1003B0009FEF0895FC01918D828D981731F0828D09
:1003C000E80FF11D858D90E008958FEF9FEF089560
:1003D000FC01918D228D892F90E0805C9F4F821BC4
:1003E00091098F739927089585EF93E00E94E801A2
:1003F00021E0892B09F420E0822F089582E994E01E
:100400000E94E80121E0892B09F420E0822F089561
:10041000FC01A48DA80FB92FB11DA35ABF4F2C9179
:10042000848D90E001968F739927848FA689B78970
:100430002C93A089B1898C91837080648C93938D67
:10044000848D981306C00288F389E02D80818F7D0A
:1004500080830895EF92FF920F931F93CF93DF93C2
:10046000EC0181E0888F9B8D8C8D98131AC0E889F0
:10047000F989808185FF15C09FB7F894EE89FF89BF
:100480006083E889F98980818370806480839FBF5D
:1004900081E090E0DF91CF911F910F91FF90EF905D
:1004A0000895F62E0B8D10E00F5F1F4F0F7311276D
:1004B000E02E8C8D8E110CC00FB607FCFACFE889A8
:1004C000F989808185FFF5CFCE010E940802F1CF26
:1004D000EB8DEC0FFD2FF11DE35AFF4FF0829FB71C
:1004E000F8940B8FEA89FB8980818062CFCFCF930C
:1004F000DF93EC01888D8823B9F0AA89BB89E8894C
:10050000F9898C9185FD03C0808186FD0DC00FB6F1
:1005100007FCF7CF8C9185FFF2CF808185FFEDCF6F
:10052000CE010E940802E9CFDF91CF91089585EFB7
:1005300093E00E94C60180931D03803499F4809358
:100540001B0380911D03863211F480931A0380915E
:100550001A03863221F410921B0310921A03109290
:100560001C03089580E480931D03E9CF80E090E0B0
:10057000892B29F00E94FE0181110E94000080E079
:1005800090E0892B49F080E090E0892B29F00E94CF
:10059000000081110E94000080E090E0892B49F06A
:1005A00080E090E0892B29F00E94000081110E94D8
:1005B00000000E94F40181110C949702089581506B
:1005C000823108F05AC0E82FF0E08827E551FD4F4E
:1005D0008F4F0C94D90E0B030F03FD020303070387
:1005E0003D03120318031C03220326032A033003CE
:1005F00034033D0338033E034203809180008F772C
:10060000809380000895809180008F7DF9CF809144
:100610008000877FF5CF84B58F7784BD089584B53A
:100620008F7DFBCF8091B0008F778093B0000895CD
:100630008091B0008F7DF9CF809190008F7780936B
:1006400090000895809190008F7DF9CF8091900067
:10065000877FF5CF8091A0008F778093A0000895C9
:100660008091A0008F7DF9CF8091A000877FF5CF8A
:10067000809120018F77809320010895809120013F
:100680008F7DF9CF80912001877FF5CFCF93DF93C6
:10069000282F30E0F901EE5AFD4F8491F901E45F13
:1006A000FD4FD491F901EA53FE4FC491CC23A1F040
:1006B00081110E94DF02EC2FF0E0EE0FFF1FE455E6
:1006C000FE4FA591B491EC91ED2381E090E009F407
:1006D00080E0DF91CF91089580E090E0FACF1F9302
:1006E000CF93DF93282F30E0F901EE5AFD4F84912C
:1006F000F901E45FFD4FD491F901EA53FE4FC49133
:10070000CC23A9F0162F81110E94DF02EC2FF0E01C
:10071000EE0FFF1FEE56FE4FA591B4918FB7F894E0
:10072000EC91111108C0D095DE23DC938FBFDF91CF
:10073000CF911F910895DE2BF8CFCF93DF9390E0F8
:10074000FC01E45FFD4F24918A539E4FFC0184918C
:100750008823D1F090E0880F991FFC01E858FE4FE4
:10076000A591B491FC01EE56FE4FC591D491623033
:1007700071F49FB7F8943C91822F809583238C93DA
:10078000E8812E2B28839FBFDF91CF9108958FB7EB
:10079000F894EC912E2B2C938FBFF6CF3FB7F894A3
:1007A0008091D5039091D603A091D703B091D8033F
:1007B00026B5A89B05C02F3F19F00196A11DB11DBC
:1007C0003FBFBA2FA92F982F8827BC01CD01620FF8
:1007D000711D811D911D42E0660F771F881F991FB3
:1007E0004A95D1F708958F929F92AF92BF92CF9280
:1007F000DF92EF92FF924B015C010E94CE036B01EE
:100800007C010E94CE036C197D098E099F09683E08
:10081000734081059105A8F321E0821A9108A1088F
:10082000B10888EEC80E83E0D81EE11CF11C8114CB
:100830009104A104B10429F7FF90EF90DF90CF90CD
:10084000BF90AF909F908F900895089520915F037F
:10085000260F3327331F21323105ECF42091A803F2
:10086000FC0190E080E0243069F082E00895A091DE
:100870005F032191AC01415C5C4FA40FB52FB11D0A
:100880002C930196861798F380915F03680F60930D
:100890005F0380E0089581E008951092A80381E04D
:1008A0008093A7031092820361E084E10E946F03AA
:1008B00061E085E10E946F03E9EBF0E080818E7FCB
:1008C000808380818D7F808388E48093B80085E475
:1008D0008093BC000895CF93DF9391E090933E0303
:1008E0008823B9F0C091B800D091BA008091BC00C3
:1008F0008A7B8093BC0060E084E10E946F0360E02B
:1009000085E10E946F030E944D04D093BA00C0930A
:10091000B800DF91CF9108950895E091F40380919C
:10092000F303E81730F4F0E0E25EFC4F808190E0E2
:1009300008958FEF9FEF08959091F4038091F30352
:100940002FEF3FEF981748F4E92FF0E0E25EFC4FFD
:10095000208130E09F5F9093F403C9010895809156
:10096000F3039091F403891B990B0895CF92DF92C2
:10097000EF92FF920F931F93CF93DF937C01CB01F4
:100980008A012091AE03222389F0EB016B01C40E92
:10099000D51ECC15DD0569F06991D701ED91FC916B
:1009A0000190F081E02DC7011995F3CF642F0E94CB
:1009B0002604C801DF91CF911F910F91FF90EF9016
:1009C000DF90CF900895CF93DF931F92CDB7DEB71E
:1009D00069832091AE032223F9F02091F1032032A4
:1009E00058F021E030E0FC013383228390E080E086
:1009F0000F90DF91CF9108958091F203E82FF0E0FE
:100A0000E155FC4F998190838F5F8093F20380932F
:100A1000F10381E090E0ECCF61E0CE0101960E940D
:100A20002604F7CFCF92DF92EF92FF920F931F939E
:100A3000CF93DF93FC01C48121E02093AE03C093E8
:100A4000CF031092F2031092F1038385682B8FE29B
:100A500095E00E94E304D091F103D13208F092C0F6
:100A60000E94CE036B017C018091A803811165C0B7
:100A700082E08093A80381E08093A7038FEF8093A7
:100A8000A6031092A503D093A403AFEAB3E0E4E871
:100A9000F3E080E0D81385C0109283038091830334
:100AA000CC0FC82BC093830380918203813009F05F
:100AB0007CC0109282030E94CE036B017C01809166
:100AC00083038093BB008091AA039091AB03A09114
:100AD000AC03B091AD03892B8A2B8B2B99F00E942C
:100AE000CE030091AA031091AB032091AC03309187
:100AF000AD036C197D098E099F0906171707280792
:100B00003907E0F18091BC0083FDD9CF85EC80935B
:100B1000BC000E94CE036B017C018091A80382304F
:100B200009F445C08091A6038F3F61F18091A6032F
:100B3000803241F18091A60325C08091AA03909153
:100B4000AB03A091AC03B091AD03892B8A2B8B2B07
:100B500009F48ACF0E94CE030091AA031091AB033F
:100B60002091AC033091AD036C197D098E099F096A
:100B7000061717072807390708F076CF8091A903D1
:100B80000E946B041092F2031092F1031092AE03D4
:100B9000DF91CF911F910F91FF90EF90DF90CF9059
:100BA00008959D9191938F5F75CF85EEB0CF809121
:100BB000AA039091AB03A091AC03B091AD03892B34
:100BC0008A2B8B2B09F4A9CF0E94CE030091AA0394
:100BD0001091AB032091AC033091AD036C197D09EA
:100BE0008E099F09061717072807390708F095CFC0
:100BF000C5CF90E080E008950F931F93CF938C01B1
:100C0000C62F0E9412056C2F6460C8010E94120555
:100C10006C2F6B7FC8010E94120583EC90E0019756
:100C2000F1F7CF911F910F9108950F931F93CF93D9
:100C3000DF938C01D62FC42F607F642B0E94FC05AC
:100C400080E1D89FB00111246C2BC801DF91CF91B6
:100C50001F910F910C94FC05CF93DF9300D000D02F
:100C60001F921F92CDB7DEB798E0E6E0F2E0DE011A
:100C7000119601900D929A95E1F790915B05961768
:100C800008F46FEF262F30E0220F331F41E050E0D1
:100C90004C0F5D1F240F351FF9016081680F6068DC
:100CA00040E083E595E028960FB6F894DEBF0FBECE
:100CB000CDBFDF91CF910C941506CF93DF931092A7
:100CC000F4031092F3031092F2031092F1030E94C6
:100CD0004D0481E891E09093F0038093EF0382E864
:100CE00091E09093EE038093ED031092580580916C
:100CF0005D05823018F098E09093580580935B056D
:100D000062E370E080E090E00E94F30360915E0592
:100D100083E595E00E94120568EE73E080E090E0C4
:100D20000E94F30360E383E595E00E94FC05CBE4B9
:100D3000D6E4CE010197F1F760E383E595E00E94E8
:100D4000FC052197F1F760E383E595E00E94FC053F
:100D500083E592E00197F1F760E283E595E00E9478
:100D6000FC0560915805606240E083E595E00E94D3
:100D7000150684E08093590540E06CE083E595E03A
:100D80000E94150640E061E083E595E00E941506AB
:100D9000CBE3DFE1CE010197F1F782E080935A05C2
:100DA00040E066E083E595E00E94150640E062E0E1
:100DB00083E595E00E9415062197F1F7DF91CF9129
:100DC000089541E00E94150681E090E00895FB013E
:100DD00001900020E9F73197AF01461B570BDC016A
:100DE000ED91FC910280F381E02D1994BC0183E523
:100DF00095E00C94E706CF93DF93BC0182E994E081
:100E00000E94E706EC016EE372E082E994E00E9442
:100E1000E7068C0F9D1FDF91CF910895CF93DF934D
:100E2000BC0182E994E00E94B001EC016EE372E043
:100E300082E994E00E94E7068C0F9D1FDF91CF911D
:100E400008958F929F92AF92BF92CF92DF92EF92CE
:100E5000FF92CF93DF93CDB7DEB7A1970FB6F8948B
:100E6000DEBF0FBECDBF6C01990FEE08FF08F7FE85
:100E700040C041E06DE283E595E00E94150622271F
:100E80003327A9012C193D094E095F0919A2CE018A
:100E900081967C019AE0892E912CA12CB12CCA015B
:100EA000B901A50194010E94B70E605DF70162933C
:100EB0007F01211531054105510589F790E080E05A
:100EC000309729F0BF0183E595E00E94E70601967F
:100ED000A1960FB6F894DEBF0FBECDBFDF91CF91C4
:100EE000FF90EF90DF90CF90BF90AF909F908F904A
:100EF0000895A701960119A2CE0181967C018AE08E
:100F0000882E912CA12CB12CCA01B901A501940104
:100F10000E94B70E605DF70162937F0121153105D4
:100F20004105510589F790E080E0309789F2BF01D3
:100F300083E595E00E94E706CBCF0F931F93CF93F5
:100F4000DF93EC0188819981009759F02A813B81D8
:100F50002617370730F081E0DF91CF911F910F9175
:100F600008958B016F5F7F4F0E940610009759F024
:100F7000998388831B830A832C813D81232B59F716
:100F8000FC011082E8CF80E0E7CFCF93DF93EC0144
:100F900088819981009711F00E947D0F1982188233
:100FA0001D821C821B821A82DF91CF910895EF92DD
:100FB000FF920F931F93CF93DF931F921F92CDB792
:100FC000DEB78C0186E289831A82F801E480F5801D
:100FD000FFEFEF1AFF0AB701C8010E949D0788239F
:100FE000C9F0F8012081318184819581BE016F5F54
:100FF0007F4F820F931F0E94F010F801F582E48268
:10100000C8010F900F90DF91CF911F910F91FF902A
:10101000EF900895C8010E94C507F2CFEF92FF92AA
:101020000F931F93CF93DF93EC01FB01E080F180DE
:10103000E114F10411F10481158101151105A9F0E4
:101040008C819D81080F191FB801CE010E949D0758
:10105000882399F0288139818C819D81B701820F85
:10106000931F0E94F0101D830C83CE01DF91CF915E
:101070001F910F91FF90EF900895CE010E94C50738
:10108000F4CFEF92FF920F931F93CF93DF93EC0176
:101090007B018A01BA010E949D0781110BC0CE011C
:1010A0000E94C507CE01DF91CF911F910F91FF9054
:1010B000EF9008951D830C83B701888199810E9468
:1010C000F010F0CFEF92FF920F931F93CF93DF9327
:1010D000CDB7DEB762970FB6F894DEBF0FBECDBFB7
:1010E0008C01CB01F80111821082138212821582C9
:1010F00014824AE09E012F5F3F4F7901B9010E949F
:10110000820EF70101900020E9F73197AF014E19E7
:101110005F09B701C8010E94410862960FB6F894B2
:10112000DEBF0FBECDBFDF91CF911F910F91FF901A
:10113000EF900895CF93DF93EC01FB01861797079B
:1011400049F0608171816115710541F044815581DB
:101150000E944108CE01DF91CF9108950E94C507FA
:10116000F9CFFC011182108213821282158214823F
:10117000FB0101900020E9F73197AF01461B570BA7
:101180000C944108FC0180819181009711F00C942E
:101190007D0F089585ED8093BC008091AA03909106
:1011A000AB03A091AC03B091AD030796A11DB11D97
:1011B00023E0B695A795979587952A95D1F7209125
:1011C000BC0024FD03C01092A80308954091AA0317
:1011D0005091AB036091AC037091AD03452B462B4E
:1011E000472B69F30097A105B10541F025E32A9546
:1011F000F1F700000197A109B109E1CF8091A9039E
:101200000C946B041F920F920FB60F9211240BB621
:101210000F922F933F934F935F936F937F938F938F
:101220009F93AF93BF93EF93FF9385EF93E00E945B
:101230000802FF91EF91BF91AF919F918F917F91A4
:101240006F915F914F913F912F910F900BBE0F9037
:101250000FBE0F901F9018951F920F920FB60F920E
:1012600011240BB60F922F938F939F93EF93FF93BD
:10127000E0910504F09106048081E0910B04F09167
:101280000C0482FD1DC0908180910E048F5F8F73CE
:1012900020910F04821741F0E0910E04F0E0EB5032
:1012A000FC4F958F80930E04FF91EF919F918F914A
:1012B0002F910F900BBE0F900FBE0F901F9018959F
:1012C0008081F2CF1F920F920FB60F9211240BB6AE
:1012D0000F922F933F934F935F936F937F938F93CF
:1012E0009F93AF93BF93EF93FF9382E994E00E94A3
:1012F0000802FF91EF91BF91AF919F918F917F91E4
:101300006F915F914F913F912F910F900BBE0F9076
:101310000FBE0F901F9018951F920F920FB60F924D
:1013200011240BB60F922F938F939F93EF93FF93FC
:10133000E091A204F091A3048081E091A804F091CF
:10134000A90482FD1DC090818091AB048F5F8F73D3
:101350002091AC04821741F0E091AB04F0E0EE562E
:10136000FB4F958F8093AB04FF91EF919F918F91ED
:101370002F910F900BBE0F900FBE0F901F901895DE
:101380008081F2CF1F920F920FB60F9211242F93EC
:101390003F938F939F93AF93BF938091D10390918D
:1013A000D203A091D303B091D4033091D00323E0B2
:1013B000230F2D3758F50196A11DB11D2093D003A1
:1013C0008093D1039093D203A093D303B093D4031B
:1013D0008091D5039091D603A091D703B091D80303
:1013E0000196A11DB11D8093D5039093D603A093C0
:1013F000D703B093D803BF91AF919F918F913F9145
:101400002F910F900FBE0F901F90189526E8230F75
:101410000296A11DB11DD2CF1F920F920FB60F924F
:1014200011240BB60F922F933F934F935F936F93BB
:101430007F938F939F93AF93BF93EF93FF9380918D
:10144000B900887F803609F44DC008F040C088326A
:1014500009F4A9C028F5803109F49DC0C8F4882397
:1014600009F4FBC0883009F496C0FF91EF91BF9159
:10147000AF919F918F917F916F915F914F913F912C
:101480002F910F900BBE0F900FBE0F901F901895CD
:10149000883109F488C0803241F78093A60314C0D4
:1014A000803409F49DC040F48033B9F38833E9F601
:1014B0008093A60385ECB0C0803509F485C08835DB
:1014C00009F496C0883489F60E94CA08CECF8839BC
:1014D00009F48CC038F5883729F050F4883611F0BB
:1014E000803719F683E08093A8031092810357C0D8
:1014F000883809F47BC0803919F0803809F0B5CFFD
:1015000080918103803208F071C0E091810381E015
:101510008E0F809381038091BB00F0E0EF59FC4F68
:1015200080833DC0803B39F0E0F4803A09F479C013
:10153000883A09F09ACF84E08093A8031092600360
:1015400010925F03E091EF03F091F0031995809101
:101550005F0381110FC081E080935F0310923F030E
:1015600009C0803C09F4A6CF883C09F4A3CF883B8E
:1015700009F07BCFE091600381E08E0F80936003E0
:10158000F0E0E15CFC4F80818093BB0090916003B0
:1015900080915F0329C0809183038093BB0085EC19
:1015A0008093BC0062CF9091A5038091A40398170B
:1015B00058F5E091A50381E08E0F8093A503F0E03C
:1015C000EC57FC4F8081E9CFE091A50381E08E0FBD
:1015D0008093A5038091BB00F0E0EC57FC4F808323
:1015E0009091A5038091A4039817C8F285E8D8CFFD
:1015F000E091A50381E08E0F8093A5038091BB004D
:10160000F0E0EC57FC4F80838091A70381115CCF01
:1016100081E08093820384EA8093BC001092A80347
:1016200024CF85EC8093BC001092A80380918103A5
:10163000803230F4E0918103F0E0EF59FC4F1082EA
:101640006091810370E0E091ED03F091EE0381E69B
:1016500093E019951092810308CF1092A60334CF1E
:10166000E5EFF3E01382128288EE93E0A0E0B0E0B1
:1016700084839583A683B78322E132E0318320837C
:1016800045E351E05587448744E351E05787468757
:1016900040E351E0518B408B41E351E0538B428B4F
:1016A00042E351E0558B448B46E351E0578B468B28
:1016B000118E128E138E148EE2E9F4E013821282E0
:1016C00084839583A683B7833183208325EC30E020
:1016D0003587248724EC30E03787268720EC30E0FC
:1016E000318B208B21EC30E0338B228B22EC30E0ED
:1016F000358B248B26EC30E0378B268B118E128EA7
:10170000138E148EEFE2F5E01382128284839583A8
:10171000A683B78384E292E091838083E3E5F5E0DA
:101720001382128286E392E09183808387E284832E
:1017300080E1818782E08287138660E472E08DE435
:1017400095E00E94B10860E472E087E495E00E94B1
:10175000B10860E472E081E495E00E94B10860E4C1
:1017600072E08BE395E00C94B108CF93DF93CDB793
:10177000DEB72C970FB6F894DEBF0FBECDBF7894BE
:1017800084B5826084BD84B5816084BD85B5826086
:1017900085BD85B5816085BD80916E008160809337
:1017A0006E001092810080918100826080938100A0
:1017B00080918100816080938100809180008160B0
:1017C000809380008091B10084608093B10080910B
:1017D000B00081608093B00080919100826080931E
:1017E00091008091910081608093910080919000A0
:1017F0008160809390008091A10082608093A1001D
:101800008091A10081608093A1008091A0008160FF
:101810008093A000809121018260809321018091BA
:10182000210181608093210180912001816080935A
:10183000200180917A00846080937A0080917A0000
:10184000826080937A0080917A00816080937A0030
:1018500080917A00806880937A001092C10061E0E4
:101860008DE00E949D0361E08CE00E949D0361E099
:101870008DE00E946F0360E08CE00E946F0362E0E5
:1018800082E00E949D03E0910504F091060422E0AD
:101890002083E0910104F091020481E08083E091D3
:1018A0000304F091040480EA808310920D04E09117
:1018B0000904F0910A0496E09083E0910704F09106
:1018C0000804808180618083E0910704F09108041E
:1018D000808188608083E0910704F0910804808112
:1018E00080688083E0910704F091080480818F7DF7
:1018F0008083E091A204F091A3042083E0919E04F0
:10190000F0919F041082E091A004F091A1048FEC6B
:1019100080831092AA04E091A604F091A70490831A
:10192000E091A404F091A504808180618083E0911E
:10193000A404F091A504808188608083E091A404D0
:10194000F091A504808180688083E091A404F091E7
:10195000A50480818F7D808381E492E00E94FB0654
:101960008CE892E00E94FB0681E492E00E94FB0674
:101970000E945D0688E080935E0560E083E595E067
:101980000E94120560E080E00E942C0687ED92E044
:101990000E94F60660E087E00E942C068EED92E041
:1019A0000E94F60661E080E00E942C0685EE92E03F
:1019B0000E94F60661E087E00E942C0688EE92E025
:1019C0000E94F60618E062E370E080E090E00E947A
:1019D000F30382E00E9446037C018091EB03909127
:1019E000EC03E816F90609F451C0E114F10409F01A
:1019F0002CC160E08DE00E946F0361E08CE00E94EA
:101A00006F038BEE92E00E94FB0681E492E00E945D
:101A1000FB060E945D0610935E0560E083E595E09D
:101A20000E94120560E081E00E942C0687ED92E0A2
:101A30000E94F60661E080E00E942C0685EE92E0AE
:101A40000E94F60661E087E00E942C0688EE92E094
:101A50000E94F60660E088E00E942C068CEF92E07F
:101A60000E94F60661E084E00E942C068091E90362
:101A70009091EA030E94210761E08BE00E942C060E
:101A80008091E9039091EA030E942107F092EC0310
:101A9000E092EB038DE00E9446037C019093E80303
:101AA0008093E7038CE00E9446039093E6038093C3
:101AB000E5038091E3039091E403E816F90609F445
:101AC0004FC0EA94EF2809F04BC08091E103909158
:101AD000E20301969093E2038093E1036091D903BE
:101AE0007091DA036F5F7F4F7093DA036093D903CD
:101AF0007093EA036093E903CE0101960E946208A5
:101B000064E173E0CE0107960E94B108BE016F5FE9
:101B10007F4FCE0107960E940E080E94D707BC0196
:101B20008BE395E00E949A08CE0107960E94C208B6
:101B3000CE0101960E94C2086BE375E085EF93E049
:101B40000E94B0018BE395E00E940E070E9497026D
:101B50008DE495E00E940E0781E492E00E94FB066E
:101B600062E370E080E090E00E94F3038091E7037D
:101B70009091E8039093E4038093E3038091E5035D
:101B80009091E6032091DF033091E00382179307E1
:101B900009F450C0019709F04DC08091DD03909188
:101BA000DE0301969093DE038093DD036091DB03F7
:101BB0007091DC036F5F7F4F7093DC036093DB03F6
:101BC0007093EA036093E903CE0101960E946208D4
:101BD00067E173E0CE0107960E94B108BE016F5F16
:101BE0007F4FCE0107960E940E080E94D707BC01C6
:101BF00081E495E00E949A08CE0107960E94C208EF
:101C0000CE0101960E94C20861E475E085EF93E081
:101C10000E94B00161E475E082E994E00E94B001A5
:101C20000E94970287E495E00E940E0781E492E00B
:101C30000E94FB068091E5039091E6039093E003F8
:101C40008093DF030E94B602BECE61E08DE00E9469
:101C50006F0360E08CE00E946F0383E093E00E94DA
:101C6000FB0681E492E00E94FB060E945D06109351
:101C70005E0560E083E595E00E94120560E081E08A
:101C80000E942C0687ED92E00E94F60661E080E05B
:101C90000E942C0685EE92E00E94F60661E087E045
:101CA0000E942C0688EE92E00E94F60660E088E032
:101CB0000E942C068EED92E00E94F60661E084E020
:101CC0000E942C068091E9039091EA030E9421076B
:101CD00061E08BE00E942C068091E9039091EA0379
:101CE0000196D2CE8BE395E00E94C20881E495E094
:101CF0000E94C20887E495E00E94C2088DE495E046
:101D00000C94C208BB274A3031F4992322F4BDE277
:101D1000909581959F4F0C948E0EBB27FB01552704
:101D2000AA27880F991FAA1FA41710F0A41B839538
:101D30005051B9F7A05DAA3308F0A95DA1930097AF
:101D400079F7B111B1931192CB010C94A70EDC017C
:101D5000FC01672F71917723E1F7329704C07C91E2
:101D60006D9370836291AE17BF07C8F30895A1E227
:101D70001A2EAA1BBB1BFD010DC0AA1FBB1FEE1F05
:101D8000FF1FA217B307E407F50720F0A21BB30B50
:101D9000E40BF50B661F771F881F991F1A9469F7CC
:101DA00060957095809590959B01AC01BD01CF0128
:101DB0000895EE0FFF1F881F8BBF0790F691E02D4F
:101DC00019940F931F93CF93DF938230910510F4F2
:101DD00082E090E0E0916105F091620530E020E062
:101DE000B0E0A0E0309799F42115310509F44AC01C
:101DF000281B390B24303105D8F58A819B81611568
:101E0000710589F1FB0193838283FE0111C040813A
:101E100051810281138148175907E0F0481759078B
:101E200099F4109761F012960C93129713961C93E5
:101E30003296CF01DF91CF911F910F9108950093BA
:101E4000610510936205F4CF2115310551F0421759
:101E5000530738F0A901DB019A01BD01DF01F80148
:101E6000C1CFEF01F9CF9093620580936105CDCF8B
:101E7000FE01E20FF31F81939193225031093983C0
:101E80002883D7CF20915F0530916005232B41F443
:101E900020910202309103023093600520935F0588
:101EA00020910002309101022115310541F42DB736
:101EB0003EB74091040250910502241B350BE0917E
:101EC0005F05F0916005E217F307A0F42E1B3F0BAE
:101ED0002817390778F0AC014E5F5F4F241735079C
:101EE00048F04E0F5F1F5093600540935F0581934C
:101EF00091939FCFF0E0E0E09CCFCF93DF930097EA
:101F0000E9F0FC01329713821282A0916105B09131
:101F10006205ED0130E020E01097A1F420813181CD
:101F2000820F931F20915F053091600528173907B4
:101F300009F061C0F0936005E0935F05DF91CF91F8
:101F40000895EA01CE17DF07E8F54A815B819E011B
:101F500041155105B1F7E901FB83EA834991599194
:101F6000C40FD51FEC17FD0761F4808191810296A3
:101F7000840F951FE90199838883828193819B83D4
:101F80008A83F0E0E0E012968D919C911397009780
:101F9000B9F52D913C911197CD010296820F931FB7
:101FA00020915F05309160052817390739F6309781
:101FB00051F51092620510926105B0936005A093EF
:101FC0005F05BCCFD383C28340815181840F951FAD
:101FD000C817D90761F44E5F5F4F88819981480F18
:101FE000591F518340838A819B819383828321156A
:101FF000310509F0B0CFF0936205E09361059ECF03
:10200000FD01DC01C0CF13821282D7CF4F925F92C5
:102010006F927F928F929F92AF92BF92CF92DF92F8
:10202000EF92FF920F931F93CF93DF938C01009752
:1020300099F4CB01DF91CF911F910F91FF90EF9019
:10204000DF90CF90BF90AF909F908F907F906F90D8
:102050005F904F900C94E10EFC01E60FF71F9C017E
:1020600022503109E217F30708F4AEC0D901CD912F
:10207000DC911197C617D70720F1C530D10578F04C
:10208000CE0104978617970750F0C61BD70B2297EF
:10209000C193D1936D937C93CF010E947D0FC801B2
:1020A000DF91CF911F910F91FF90EF90DF90CF9034
:1020B000BF90AF909F908F907F906F905F904F9068
:1020C00008955B01AC1ABD0A4C018C0E9D1EA091B7
:1020D0006105B0916205512C412CF12CE12C109737
:1020E00031F580915F05909160058815990509F09B
:1020F0005CC04616570608F058C0809100029091C7
:102100000102009741F48DB79EB7409104025091AF
:102110000502841B950BE817F90708F055C0F093EA
:102120006005E0935F05F90171836083B8CF8D91FD
:102130009C91119712966C90129713967C9013971E
:10214000A815B90559F56C0142E0C40ED11CCA149A
:10215000DB0420F1AC014A195B09DA0112961597EC
:1021600080F06282738251834083D9016D937C93A6
:10217000E114F10471F0D7011396FC93EE931297DA
:102180008ECF22968C0F9D1FF90191838083F301DE
:10219000EFCFF0936205E093610581CF48165906B1
:1021A00008F42C017D01D3019ACFCB010E94E10EEE
:1021B0007C01009749F0AE01B8010E94E710C80108
:1021C0000E947D0F87016BCF10E000E068CFFB011C
:1021D000DC0102C001900D9241505040D8F70895A3
:1021E000FB01DC0101900D920020E1F7089511E060
:1021F000CDE4D1E000E006C0802FFE010E94D90EA0
:102200002196011DCE34D10780E00807A9F7F89484
:02221000FFCFFE
:10221200000063058000000040001400540000002C
:1022220000002A028301B7017702E801C601DA0140
:1022320000000000E304B604F9058C04AF049C041A
:102242008D0400000000E1068301F90525040D0A52
:10225200007C2D2D2D2D2D2D2D2D2D2D2D2D2D2D8A
:102262002D2D2D2D2D2D2D2D2D2D2D2D2D2D2D2D9C
:102272002D2D2D2D2D2D2D2D2D2D2D2D2D2D2D2D8C
:102282002D2D2D2D2D2D2D2D2D2D2D2D2D2D2D2D7C
:102292002D2D2D2D2D2D2D2D2D2D7C007C204558C5
:1022A20045524349534520323A4F564552534545CC
:1022B20053204F50454E494E4720414E4420434CF7
:1022C2004F53494E47204F5045524154494F4E5368
:1022D200202D2041524455494E4F204D4547412023
:1022E20032353630207C0053544154555300434C10
:1022F2004F534544004F5000434C00203E3E3E2089
:10230200446F6F72204F70656E6564004F50454E8A
:10231200454400203E3E3E20446F6F7220436C6F66
:0A232200736564004053004073002F
:00000001FF
